S31508000000306F0020450100081D210008D51700089B
S3150800001009210008BD120008052700080000000095
S315080000200000000000000000000000001122000887
S31508000030D117000800000000412100081522000819
S315080000405F0100085F0100085F0100085F01000802
S315080000505F0100085F0100085F0100085F010008F2
S315080000605F0100085F0100085F0100085F010008E2
S315080000705F0100085F0100085F0100085F010008D2
S315080000805F0100085F0100085F0100085F010008C2
S315080000905F0100085F0100085F0100085F010008B2
S315080000A05F0100085F0100085F0100085F010008A2
S315080000B05F010008852400085F0100085F01000849
S315080000C05F0100085F0100085F0100085F01000882
S315080000D05F0100085F0100085F0100082926000883
S315080000E05F0100085F0100085F0100085F01000862
S315080000F05F0100085F0100085F0100085F01000852
S315080001005F0100085F0100085F0100085F01000841
S315080001105F010008952500085F010008CD24000846
S315080001205F0100085F0100085F0100085F01000821
S31508000130DFF80CD000F0B2FE00480047A55C0008C6
S31508000140306F00200648804706480047FEE7FEE76E
S31508000150FEE7FEE7FEE7FEE7FEE7FEE7FEE7FEE769
S31508000160192200083101000800487047849A0008DF
S3150800017010B50446FFF7F8FF0068005D00F00100BF
S3150800018010BDA0F14101192900D82030704740EA76
S3150800019001039B0703D009E008C9121F08C0042AF7
S315080001A0FAD203E011F8013B00F8013B521EF9D2DE
S315080001B07047D2B201E000F8012B491EFBD2704706
S315080001C00022F6E710B513460A4604461946FFF715
S315080001D0F0FF204610BD10B5044604E00B7800F881
S315080001E0013B03B1491C521EF8D2204610BDCAB2C3
S315080001F0401E10F8011F8A4202D00029F9D10020BA
S315080002007047421C10F8011B0029FBD1801A704761
S3150800021010B5002200E0521C835C8C5CA34201D11D
S31508000220002BF8D1D8B2E1B2401A10BD30B5044659
S315080002300020034600E05B1C934203D2E05CCD5CE1
S31508000240401BF8D030BD034611F8012B00F8012BEE
S31508000250002AF9D11846704730B5054600200346EE
S3150800026000E05B1C934205D2EC5CC85C201A01D105
S31508000270002CF6D130BD00000FB400B58DB010A922
S3150800028009900B9000914FF0FF300A9000200C90D7
S3150800029005480690054807906A4609A80F9900F090
S315080002A057FC0DB05DF814FB6D0B00088B0B0008AE
S315080002B02DE9FF5F1D464FF0FF3BD5E90146914604
S315080002C05F464FF00008A9697F1C01988847296A8C
S315080002D0824688470028F6D1BAF1FF3F0CD024F4AD
S315080002E0C064002E19DD600614D5BAF12B0F09D0AB
S315080002F0BAF12D0F0ED103E0584604B0BDE8F09FC1
S3150800030044F48064A9697F1C01988847761E824652
S31508000310002E02DDBAF1300F03D0B9F1000F26D056
S3150800032032E0A969761E44F400747F1C0198884758
S315080003308246002E05DDBAF1780F06D0BAF1580FBD
S3150800034003D0B9F1000F10D01EE0B9F1000F02D0AA
S31508000350B9F1100F18D1A969761E24F400747F1C10
S31508000360019888478246102002E0082000E00A200B
S31508000370814609E008FB0908A969761E44F4007459
S315080003807F1C019888478246002E05DD494650465F
S3150800039000F0CAFB0028EDDAE96901988847A0054C
S315080003A002D46FF00100A8E7E00725D1600613D54F
S315080003B0600502D5C8F1000000E0404629680A1D1C
S315080003C02A600968220501D5087015E0220701D5BB
S315080003D0088011E008600FE02868011D29600068A0
S315080003E0210502D580F8008006E0210702D5A0F88D
S315080003F0008001E0C0F8008038467EE72DE9FF4F0F
S31508000400087883B09946FF2805D0491C2D2804D0C2
S315080004100024002008E000200BE00124F9E700EBA7
S31508000420800003EB4000491C0B78FF2BF7D104B181
S31508000430404200230293147819461D462D2C01D0FC
S315080004402B2C04D1521C2D2C13D000240294AA461E
S315080004501478FF2C0FD00A25A3FB057801FB05812C
S315080004604FF0000C03FB0C11521CE3194AEB010177
S31508000470EEE70124EAE7814453EA010002D019F5C0
S31508000480C87F06DA03980021C0E9001107B0BDE865
S31508000490F08F0025AE4E2F46DFF8B882184600F0DA
S315080004A0A5FCCDE90001B9F1000002DAC9F10004A2
S315080004B000E004460023A74A1AEB030B42EB045A52
S315080004C012E0E00707D02A4633463846414600F090
S315080004D0ECF9074688462A4633461046194600F080
S315080004E0E4F905460E466410002CEAD1DDE9000160
S315080004F0B9F1000F5A46534606DA00F008FC3A46A8
S31508000500434600F004FC05E000F0CFF93A464346BE
S3150800051000F0CBF9029A0AB181F00041039AC2E9C8
S315080005200001B3E72DE9FF4F1F468DB0D7E9014615
S315080005304FF0FF382E2045464FF000090B90B96959
S315080005406D1C0E988847396A824688470028F6D176
S31508000550BAF1FF3F0AD024F4D064002E11DDBAF1B7
S315080005602B0F08D0BAF12D0F0BD102E0404611B07F
S315080005708DE744F48064B9696D1C0E9888478246F5
S31508000580761E6946600501D52D2000E02B208DF8E2
S31508000590000001F1010B0DF1200809E0B9696D1C95
S315080005A00E98884782460F9844F40074761E0560B4
S315080005B0002E02DDBAF1300FF0D00B998A453ED1F4
S315080005C044F0800406E00F99681CA9F1010944F477
S315080005D000740860B9696D1C761E0E9888478246B5
S315080005E03028F0D02BE00B998A4505D1200603D494
S315080005F044F08004761E18E0504608F0E7FD08B37C
S315080006000DF11302761EAAF1300044F400749345E6
S3150800061006D20BF8010B200607D5A9F1010003E065
S31508000620200602D409F101008146A00502D50F99DA
S31508000630681C0860B9696D1C0E9888478246002EAA
S31508000640D1DC53E0002E51DDBAF1650F02D0BAF1C4
S31508000650450F4BD1A00549D5B9696D1C24F44074E2
S31508000660761E0E9888478246002E0CDD2B2804D06D
S31508000670BAF12D0F07D144F48074B9696D1C0E9830
S3150800068088478246761EE00501D52D2100E02B21FC
S3150800069008F8011BCDF82C8021E00DF12901761E02
S315080006A044F4007488450CD2AAF1300010F0FF001B
S315080006B088F8000002D10B99884509D908F1010884
S315080006C006E0E00501D5244801E042F20F708146B4
S315080006D0B9696D1C0E98884782460F980560002EEA
S315080006E004DD504608F072FD0028D6D1F9690E9847
S315080006F08847FF208BF8000088F800000020069045
S3150800070007904B466A4608A906A8FFF777FEA00594
S3150800071002D46FF001002AE714F0240F0AD0E0078C
S3150800072014D1DDE906123868031D3B600068C0E98C
S3150800073000120BE0DDE9060100F094FB0146E00734
S3150800074004D13868021D3A600068016028460EE741
S31508000750000014400000F03FF1D8FFFF2DE9FE4FDE
S31508000760804681EA0300C00F0C46009021F0004144
S3150800077023F00045B8EB0200A94105D240462146C0
S3150800078090461C460B46024623F00040104347D0CD
S31508000790270DC7F30A00C3F30A510290401A0190C5
S315080007A040286BDAC3F3130040F4801B0098924686
S315080007B020B10023D2EB030A63EB0B0B01985946D1
S315080007C0C0F14002504600F07EF906460D465046F6
S315080007D05946019A00F096F910EB08006141002489
S315080007E087EA115284EAE7731A4340D0009A62B343
S315080007F0019A012A4FEA075215DC001B61EB020138
S315080008004FF0004202EA0752CDE90042001C41F5CA
S31508000810801132462B4600F02CFA03B0BDE8F08F63
S3150800082040462146F9E7001B61EB0201001C41F531
S31508000830801300185B412018A2F5001747EB030147
S3150800084040EAD570B6196D4111E06D084FEA3606D3
S3150800085045EAC0754FEA0752001B61EB0201001C0E
S3150800086041F5801149084FEA3000001951413246D6
S315080008702B4603B0BDE8F04F00F0ECB90098012212
S3150800088040000023D0EB020263EBE0730098214698
S315080008904FEAE074B8EB000061EB0401E9E783F086
S315080008A000435BE781F0004158E72DE9FE4F81EAF6
S315080008B0030404F0004421F0004100944FF0000BBB
S315080008C023F0004350EA01045ED052EA03045BD0E9
S315080008D0C3F30A54C1F30A552C44A4F2F334019421
S315080008E0A0FB0254C1F3130141F48011C3F31303AF
S315080008F043F4801301FB024400FB034E840A970A63
S3150800090044EA815447EA8357A4FB076802958D0A8F
S3150800091005FB07854FEA932C04FB0C542705029D1B
S315080009204FEA065847EA1637B5EB08056EEB070C8B
S31508000930870E920E47EA811742EA8312A7FB020145
S31508000940B6EB0B0164EB00042B0D43EA0C335E187F
S3150800095044EB1C50DA465146E7FB0201C5F3130483
S315080009604FEA0B3343EA14534FEA0432019C43EA35
S315080009700603A4F10C040294009CCDE900B400F02F
S3150800098078F903B0BDE8F08F00200146F9E730B5E5
S31508000990041E71F1000404DB4FF00044404264EB8E
S315080009A00101141E73F1000405DB1C464FF00043D9
S315080009B0524263EB0403801A994101D3012030BDEA
S315080009C0002030BD30B5041E71F1000404DB4FF081
S315080009D00044404264EB0101141E73F1000405DB78
S315080009E01C464FF00043524263EB0403101A8B4136
S315080009F001D3012030BD002030BD70B5C1F30A52C5
S31508000A0001F000450024C1F3130140F2FF3341F41D
S31508000A1080119A4201DA002070BD40F233439A42AF
S31508000A20A2F2334203DC524200F05CF800E0904048
S31508000A302C43F1D0404270BD30B50B46014600202C
S31508000A402022012409E021FA02F59D4205D303FA82
S31508000A5002F5491B04FA02F52844151EA2F1010203
S31508000A60F1DC30BD2DE9F05F0546002092469B4635
S31508000A7088460646814640241BE0284641464746A6
S31508000A80224600F02FF853465A46C01A914110D311
S31508000A9011461846224600F016F82D1A67EB01088B
S31508000AA04F4622460120002100F00DF817EB0009F9
S31508000AB04E41201EA4F10104DFDC484631462A4691
S31508000AC04346BDE8F09F202A04DB203A00FA02F1EB
S31508000AD0002070479140C2F1200320FA03F319431E
S31508000AE090407047202A04DB203A21FA02F00021C0
S31508000AF0704721FA02F3D040C2F120029140084320
S31508000B0019467047202A06DBCB17203A41FA02F02D
S31508000B1043EAE07306E041FA02F3D040C2F120024C
S31508000B2091400843194670473A2800D2303820F0D9
S31508000B302002412A01D3A2F13700884201D34FF09F
S31508000B40FF307047026811441378016018467047F1
S31508000B50D1600449516104491162002111611146AD
S31508000B6000F0B4B9450B000871010008426842B1AB
S31508000B70016811F8013B23B1521EC0E9001218465C
S31508000B8070470121C160881E704742685AB1C36820
S31508000B90016843B983688B4205D0491E521CC0E9D7
S31508000BA00012002070474FF0FF3070470FB40B005B
S31508000BB010B58AB00FA900910E994FF00004234A88
S31508000BC0CC60214CCDE9064200D004236FF00042E8
S31508000BD0CDE901321E4A089202466B460020FFF70D
S31508000BE0A1FC0AB010BC5DF814FBF0B585B0074649
S31508000BF04FF0FF300091CDE901011E460020154651
S31508000C000C4604903B466A46314604A8FFF7CEFFD9
S31508000C1004990346601825B109B1024600E0224648
S31508000C202A6000290ED0002B02DD0099814209D0E6
S31508000C300094001BCDE901043B466A46314604A8E8
S31508000C40FFF7B4FF05B0F0BD6D0B00088B0B00086D
S31508000C507101000810B5141E73F1000408DA401C6F
S31508000C6041F1000192185B411A4301D120F00100BD
S31508000C7010BD2DE9F04D92469B4611B1B1FA81F2AD
S31508000C8002E0B0FA80F220329046FFF71CFF0446D5
S31508000C900F4640EA0A0041EA0B0153465A46084302
S31508000CA013D0114653EA010019D0C8F14002504644
S31508000CB0FFF718FF05460E46504659464246FFF7C7
S31508000CC002FF084305D0012004E020463946BDE866
S31508000CD0F08D0020054346EAE0762C4337430A9810
S31508000CE06305E40AA0EB08000022FD0A44EA47541B
S31508000CF00A3002D500200146E9E7010510196941C5
S31508000D00DDE9084500196941BDE8F04DA2E72DE97E
S31508000D10F04D81EA030404F0004B21F00045144627
S31508000D204FF0000A23F0004150EA050220D054EAA9
S31508000D3001021DD0C5F30A570246C5F31303C1F3D2
S31508000D401300C1F30A5640F4801543F48013A7EB49
S31508000D500608101BD64608F2FD3873EB050002D3C9
S31508000D6008F1010801E092185B41B8F1000F03DAB7
S31508000D7000200146BDE8F08D00204FF4801106469C
S31508000D8084460EE0171B73EB050705D3121B63EBAE
S31508000D90050306434CEA010C49084FEA300092184D
S31508000DA05B4150EA0107EDD152EA030012D082EA0C
S31508000DB0040083EA0501084305D0101BAB4106D29F
S31508000DC00122002306E000224FF0004302E06FF004
S31508000DD0010253101AEB06004CEB085110EB0A00FF
S31508000DE041EB0B01BDE8F04DFFF734BF0EB540F2FD
S31508000DF0334202920022CDE900221346FFF739FF5B
S31508000E0003B000BDC1F30A52C1F3130140F2FF3328
S31508000E1041F480119A4202DA00200146704740F2F6
S31508000E2033439A42A2F2334202DC5242FFF75ABED9
S31508000E30FFF749BE30B5041E71F1000404DB4FF01C
S31508000E400044404264EB0101141E73F1000405DB03
S31508000E501C464FF00043524263EB0403994208BF15
S31508000E60904230BD01F0004330B421F0004150EA11
S31508000E70010206D00A0DA2F56072C1F31301002A19
S31508000E8002DC30BC00207047440F44EAC104C100AC
S31508000E90E01830BC00EBC25000F0AEB91CB50948EA
S31508000EA00090094801900546009C06E0E06840F07D
S31508000EB0010394E8070098471034AC42F6D3FFF7CD
S31508000EC03BF900007C9F00089C9F00082DE9F34F22
S31508000ED08BB04FF0000801F10C000C464FF0010BE7
S31508000EE046460DF1080A019062690121019890476A
S31508000EF0051E2DD0252D2CD0216A8847C0B16269E0
S31508000F00012101989047216A88470028F7D1411E98
S31508000F1062690198904700E0761CA1690B9888479A
S31508000F20216A88470028F7D1E1690B988847DBE7EB
S31508000F30A1690B9888470746A84201D1761CD3E7D2
S31508000F40E1690B9888477F1C02D1B8F1000F6FD072
S31508000F5046E1002762693D463946019890472A28A6
S31508000F6004D162690121019890470125DFF884922E
S31508000F706269012101989047A0F130010A290AD235
S31508000F804F45E5DC07EB870100EB4107303FDFD42F
S31508000F9045F01005ECE7E90601D46FF000476C2828
S31508000FA00AD04C2814D0682815D06A280DD0742881
S31508000FB01CD07A281AD01DE0626901210198904751
S31508000FC06C2802D045F0040514E045F002050DE052
S31508000FD045F020050AE062690121019890476828D2
S31508000FE002D045F0080505E045F40065626901216F
S31508000FF001989047C4E9015765283DD019DC58285F
S315080010007AD00CDC452837D004DC252826D04128A0
S3150800101031D131E046282FD047282CD12CE05B2847
S3150800102077D0612828D063287CD0642823D15AE059
S31508001030D0E06F2848D008DC66281DD067281BD06A
S31508001040692821D06E2816D127E0702845D0732844
S3150800105068D0752847D078280DD14DE0A1690B983E
S315080010608847054625283FF469AFE1690B98884704
S315080010706D1C3FF46AAFB3E023466A466FF0010081
S315080010800B99FFF74FFA9EE045F040006060A8070D
S3150800109023464FF0000236D43EE0E8077FF447AF18
S315080010A02068011D21600068290501D506701BE727
S315080010B0290701D5068017E7A90703D5F117C0E95F
S315080010C0006111E706600FE745F040006060A80779
S315080010D023464FF0080216D41EE040F60E0125EA14
S315080010E00100606016E045F040006060A8072346EE
S315080010F04FF00A0207D40FE045F040006060A807E9
S3150800110008D5234610226FF001000B99AFF3008033
S3150800111059E007E0234610226FF001000B99FFF70C
S31508001120C7F850E04FF000094F464B46632802D0F7
S315080011305B2806D040E0E80601D40120A06001271C
S315080011403AE062690121019890475E2805D14FF07F
S3150800115001096269494601989047216939B9002110
S315080011600A46534643F82120491C0829FADBB0B33E
S31508001170216969B9C11700EBD16253110AEB8301E2
S3150800118022F01F02821A01200B68904003430B606D
S3150800119062690121019890475D28E8D1B9F1000FED
S315080011A009D00020514651F82020D24341F820208A
S315080011B0401C0828F7DB02AB224600976FF00100B7
S315080011C00B99AFF3008000280CDA401C08D1BBF15C
S315080011D0000F05D04FF0FF300DB0BDE8F08FFFE7E8
S315080011E04046F9E7E90701D108F1010806444FF03E
S315080011F0000B79E6CCCCCC0C0029A8BF7047401C64
S31508001200490008BF20F00100704710B4B0FA80FC0E
S3150800121000FA0CF050EA010404BF10BC704749B14B
S31508001220CCF1200421FA04F411FA0CF118BF0121BB
S3150800123021430843A3EB0C01CB1D4FEA00614FEA9B
S31508001240102042BF002010BC704700EBC35010446A
S315080012500029A4BF10BC7047401C490008BF20F0F5
S31508001260010010BC704770B58C1810F8015B15F0BA
S31508001270070301D110F8013B2A1106D110F8012BFA
S3150800128003E010F8016B01F8016B5B1EF9D12B071F
S3150800129005D40023521E0DD401F8013BFAE710F8D5
S315080012A0013BCB1A921C03E013F8015B01F8015BC2
S315080012B0521EF9D5A142D8D3002070BDFEE7000022
S315080012C0F0B581B00746007814460D46012143F271
S315080012D039020023002606F0D7FB3968814208D177
S315080012E0C8B22946224602F0E5FF0138B0FA80F076
S315080012F04609304601B0F0BDF0B581B040F6181584
S31508001300C2F200050C46064600274FF4106029462F
S315080013100622009701F02AFA28786978AA78EB78E5
S3150800132008431043297918436A79084310430BD1B7
S3150800133040F60000C0F2DC0028604FF41060294631
S315080013400622AF8001F080FA40F62810E9782A795B
S31508001350C2F200006B79067046F258508E1851405A
S31508001360C2F200001E44594045F27862046040F615
S315080013702C103144C1F23422C2F2000011446C46EA
S3150800138001604FF470602146042201F05DFA4FF4C3
S3150800139080702146042201F057FA40F6D440C2F282
S315080013A00000076040F2D400C2F200000A21016082
S315080013B040F6D040C2F20000077040F6D140C2F2B3
S315080013C00000077001B0F0BDF0B581B040F6D14617
S315080013D0C2F200063078062802D1052001B0F0BD19
S315080013E040F62815C2F2000528784FF4427101EB41
S315080013F0401001F089F9222805D0287802214422D4
S31508001400002306F041FB04F001FE3178042900F2BE
S31508001410CF80DFE801F003BC38890C0040F63810AD
S31508001420C2F200000021016006F01AF8EFE0062873
S3150800143000F0C680C0B2052840F0BD8040F64810CE
S3150800144040F63811C2F20000C2F2000102780B78A9
S3150800145040F6D044C2F200049A424FF000022270CD
S3150800146040F0D98042784B789A4240F0D48082780E
S315080014708B789A4240F0CF80C078C978884240F08D
S31508001480CA800420CEE0062800F0B080C0B2052845
S3150800149040F091804FF4D85001F036F904464FF4E5
S315080014A0D8500321032701F09DF9287849F685517C
S315080014B040F6381341F28835C0F60001C2F200033F
S315080014C01122009506F036FA05464FF4D850214603
S315080014D001F088F915F10D040DD005F05DFF40F611
S315080014E0D440C2F2000001680268521A022AFBD3ED
S315080014F0002C40F0A88040F2C400C2F20000006848
S31508001500804740F6D440C2F200000021016040F254
S31508001510D400C2F200000A22026040F6D040C2F2AD
S3150800152000000170377043E040F2D000C2F20000BC
S315080015300068411C57D040F6D444C2F20004216822
S31508001540B1EB500F4FF0040033D940F6381040F68F
S315080015502C12C2F20000C2F20002006840F64811DE
S315080015601368C2F200010860581C106006F08CF877
S3150800157040F2D4020021C2F200020A23216013605D
S3150800158040F6D042C2F200020420117040E0022860
S3150800159011D146F25850C2F20000006840F63811E0
S315080015A00069C2F20001086006F06EF80220307089
S315080015B0012001B0F0BD01B0BDE8F04002F0E4BD85
S315080015C040F6D440C2F200000021016040F2D40087
S315080015D0C2F200000A22026040F6D040C2F20000C1
S315080015E0017001203070042001B0F0BD40F6D440EF
S315080015F0C2F200000021016040F2D400C2F20000ED
S315080016000A22026040F6D040C2F2000001700120B2
S31508001610307001B0F0BD40F2CC00C2F200000068A4
S315080016208047032040F6D441C2F2000100220A6036
S3150800163040F2D401C2F200010A230B600321227092
S31508001640317001B0F0BD0024046040F2D400C2F24B
S3150800165000000A21016040F2C801C2F2000140F60A
S31508001660D0400968C2F200000470884734709FE7CA
S3150800167080B540F62810C2F20000007802F0D6FDC8
S3150800168040F6D140C2F200000621017080BD00007C
S3150800169040F6D440C2F2000001680131016070478B
S315080016A040F64212C2F20002107046F25C50C2F2D4
S315080016B00000016040F64010C2F2000041F222111B
S315080016C0018070472DE9F04F89B040F64217C2F203
S315080016D00007054646F2785B40F6D8443878029209
S315080016E00E46C2F2000B4FF0000AC2F200040221B5
S315080016F0002200238BF800A0C4F800A006F0C4F965
S3150800170046F25C59C2F20009D9F800200020314699
S31508001710002303F02DFC3B78D9F800104FF035086C
S3150800172082B218462B46CDF8008006F003F93878C1
S3150800173003F032FF024618BB2068032816D39BF82D
S3150800174000300020012BC4F800A088BF0120022B1E
S315080017504FF0000103F1010638BF0121012B88BFB4
S3150800176000268BF8006020B127E000BF002000218A
S3150800177018BB0029DBD03878D9F8001092B2D1E727
S315080017803878D9F8001003AE0DF10E03B2F5807F54
S3150800179028BF4FF48072009605F0D8FBD9F80010E0
S315080017A0029A0DF1120004F035FD0446387802F06D
S315080017B03DFD204609B0BDE8F08F0024F6E700009D
S315080017C040F6D840C2F20000016801310160704756
S315080017D070470000FEE70000B0B584460698DDE9CC
S315080017E0044ECCF850102421002500BF4CF80150B7
S315080017F008314C29FAD10021CCF820108CF81C109D
S31508001800CCF84C1001218CE81600CCE903030CF146
S315080018105400CCF814E0BDE8B04000F0A3BE0000C8
S31508001820F0B599B00E4649F6902101AD0446C0F6CA
S31508001830000128465822FEF7AAFC206A38B14FF064
S31508001840FF30002804BF0121216219B0F0BD17AF8F
S31508001850384600F087FE6168384600F07BFE002EA9
S3150800186018BF3546298B04F15400A16100F066FEC5
S31508001870A16820692A4600F019FA0128DFDB01462B
S3150800188017AA204605F048FD0028D8D117A800F069
S315080018906DFE0028D3D117AD2046294602F07CFEFE
S315080018A0022807D0284600F061FE00284FF0FF30D6
S315080018B0F2D0C6E7FF208DF803000020E3686269CE
S315080018C08DF802000DF102000DF1030100F028F871
S315080018D001469DF80300012918BF4FF0FF30B0E715
S315080018E070B582B0064601A814460D46019305F068
S315080018F089FAC0F3C0012970010901983170694657
S3150800190000F0BCF8DDE900210144022A019104DB5C
S3150800191001A805F07DFA2080012002B070BD000004
S3150800192070B582B0054601A80C46019205F06AFA20
S3150800193000F0F000202816D10198694600F09EF8BC
S31508001940DDE900210144022A01910ADB01AE304695
S3150800195005F058FAC0092870304605F053FA207089
S31508001960012002B070BD002002B070BD2DE9F04321
S3150800197083B00D460D990446002602A898461746D8
S315080019800291019605F03EFA00F0F00130292CD1BB
S31508001990C0F3C0012170C0F34101296000F00101C4
S315080019A00298DDF82890397001A900F067F80299C5
S315080019B00646084401990290471802A948463A463D
S315080019C005F02EFA88B10298381A0ED428680C9CAD
S315080019D00B9D012804DB02A805F01AFAA8F80000F6
S315080019E002980126391A21602860304603B0BDE8FE
S315080019F0F08300002DE9F04182B00E460899804632
S31508001A0001A81C461546019105F0FCF900F0F00006
S31508001A10902829D10198694600F030F8DDE90012CE
S31508001A200244022901921CDB01A8571805F0F0F9B7
S31508001A30A8F8000001980021B842296010D20DF1DB
S31508001A40040800BF2868B04212DC404605F0DAF9FF
S31508001A502968019B4A1CBB422A6044F82100F1D33D
S31508001A60012002B0BDE8F081002002B0BDE8F08197
S31508001A704FF0FF3002B0BDE8F0810000B0B540F687
S31508001A80684CC2F2000C00244FF0010ECCF800009E
S31508001A900C6000BF032C0BD810F8013B0A6803F052
S31508001AA07F050EFB05224FEACE1ECCF800000A6021
S31508001AB0032C04F1010203D85CB2002C1446E9D4C5
S31508001AC01046B0BD80B54FF0FF3200BFCB1701EB13
S31508001AD0536C2CF07F03A1EB030E7F29C8BF4EF091
S31508001AE0800E7F294FEAEC1100EB020302F1010296
S31508001AF083F801E0EADC501C80BD000070B505687B
S31508001B000C4625B12846FEF77CFB064601E0D0E9DF
S31508001B1001652046FEF775FB86421CBF002070BD96
S31508001B20284621463246FEF797FBB0FA80F0400970
S31508001B3070BD00007F28BEBF02210844704743F6E7
S31508001B40FF718842BEBF0321084470474FF6FE72F4
S31508001B50C0F21F0205219042B8BF0421084470470D
S31508001B602DE9F0418AB00446006A78B308AF3846D2
S31508001B701546884600F0F6FC6168384600F0EAFC2F
S31508001B802B78581E012808D820684FF6FF72411C8A
S31508001B90904208BF01212160A9806A78A16820695E
S31508001BA0D5E9026CAF884FF0000E8DE8844100221B
S31508001BB0CDE904E6CDF818C000F060F9012805DB88
S31508001BC0014608AA204605F0A7FB20B14FF0FF30D2
S31508001BD00AB0BDE8F0812878022815D0012827D157
S31508001BE008A800F0C3FC0028F0D108AD2046294615
S31508001BF002F0D2FC04281FD0284600F0B7FC0028C3
S31508001C004FF0FF30F2D025E008A800F0AFFC00281E
S31508001C10DCD108AD2046294602F0BEFC07280BD0C9
S31508001C20284600F0A3FC00284FF0FF30F2D011E060
S31508001C3000200AB0BDE8F081E768636907A80DF1DE
S31508001C401D010DF11E020097FFF74AFE013818BF65
S31508001C504FF0FF300AB0BDE8F081000070B582B0E1
S31508001C600429019003DA6FF0010002B070BD911FDC
S31508001C7004461001B1FA81F163F3C300490940EA49
S31508001C80410001AE069DC1B2304607F0F5F801984D
S31508001C900221FFF717FF01990844019030462946AB
S31508001CA007F0F0F80198001B02B070BDF0B581B0DE
S31508001CB004460090104615460E4600F08DF8074675
S31508001CC0FFF738FFB04203DD6FF0010001B0F0BD49
S31508001CD06E463046102107F0CFF800983946FFF7D0
S31508001CE0F1FE00992F7A0844009037A038A1042FF6
S31508001CF008BF0146304607F0A3F8042F18BF03278C
S31508001D003046394607F0B8F8A87EE97E022202EA8C
S31508001D104000002918BF012140EA810709D095F83B
S31508001D203C0095F83D10202202EA401061F3C400F9
S31508001D300744286C10B167F07F0704E0A86C0028F8
S31508001D4018BF67F07F07E86C10B147F0400704E05A
S31508001D50686D002818BF47F040076E46F9B230464E
S31508001D6007F08AF8298B304607F08CF805F10C0342
S31508001D700ECB304607F094F8E87E60B105F12403EF
S31508001D800ECB6E46304607F08BF805F130030ECBC6
S31508001D90304607F085F8B7F1FF3F0BDD780605D525
S31508001DA005F14C030ECB684607F07AF80098001B3D
S31508001DB001B0F0BD05F140030ECB684607F070F898
S31508001DC07806EDD4F2E700BF4D51545400000000E8
S31508001DD04D5149736470000070B50446057AC068B1
S31508001DE0D4E904120226042D08BF0C2600F086F951
S31508001DF0032D08BF0E26E17E351871B104F12402C1
S31508001E0007CA00F07BF9D4E90C31A26B06461846DE
S31508001E1000F074F9A9190844051D206C08B9A06CCE
S31508001E2030B104F1400207CA00F068F92844851C5D
S31508001E30E06C08B9606D30B104F14C0207CA00F0D5
S31508001E405DF92844851C284670BD000010B582B08F
S31508001E500229019003DA6FF0010002B010BD0446B2
S31508001E6001A8C02107F008F801980021FFF72AFE0B
S31508001E70019908440190001B02B010BD2DE9F04FEE
S31508001E8081B0DDE90C9B15460E9A88460446109FDC
S31508001E900090484659461E4600F030F9384400F18D
S31508001EA0020A002EC8BF00F1040A5046FFF742FE98
S31508001EB0404504DD6FF0010001B0BDE8F08F0A98D7
S31508001EC006F0030100F0010065F3C30040EA410093
S31508001ED06D460F9F00F13001284606F0CDFF0098A9
S31508001EE05146FFF7EFFD00990E9B084400902846DF
S31508001EF049465A4606F0D4FF012E03DB0B9968467D
S31508001F0006F0C0FF109D009839462A46FEF73FF9AD
S31508001F10009828440090001B01B0BDE8F08F00002F
S31508001F202DE9F04F81B08146DDE90AA0984693462F
S31508001F300F46BAF1010FCDF800900FDBA0F10C06A1
S31508001F400225544656F80C0FD6E9011200F0D6F8C9
S31508001F502844013C00F10305F4D100E00225284697
S31508001F60FFF7E8FDB84204DD6FF0010001B0BDE8F7
S31508001F70F08F822040EACB006E4600F08A01304698
S31508001F8006F07AFF00982946FFF79CFD0099084459
S31508001F9000903046414606F075FFBAF1010F14DB92
S31508001FA00C986D46461E0B98A0F10C0757F80C1FA7
S31508001FB02846D7E9012306F073FF16F8011F2846BD
S31508001FC006F05AFFBAF1010AF0D10098A0EB090011
S31508001FD001B0BDE8F08F00002DE9F0438DB004464E
S31508001FE00020CDE90900206A08918DF81F2050B31A
S31508001FF00BAD284688461F4600F0B4FA61682846A5
S3150800200000F0A8FA22684FF6FF75531CA1682069EC
S31508002010AA4208BF012308AA012623600DF11F055D
S31508002020CDE900629BB200220295FFF779FF0128ED
S3150800203009DB01460BAA204605F06EF918B90BA86C
S3150800204000F094FA20B14FF0FF300DB0BDE8F083F0
S315080020500BAD00BF2046294602F09EFA092809D092
S31508002060284600F083FA00284FF0FF30F2D00DB072
S31508002070BDE8F0834FF0FF30E66865694FF0000968
S3150800208005900DF1120006AA05AB0121CDF81890AE
S31508002090CDE90056FFF7AEFC01460598012918BFA1
S315080020A04846802803D180200DB0BDE8F083002182
S315080020B0464600BF04EBC102536A1BB1013105292C
S315080020C0F8D1D4E70020C2E909670DB0BDE8F0836E
S315080020D070B582B06E46054630460C4600F042FAA8
S315080020E03046214600F036FA2846314602F054FAC0
S315080020F0411C18BF002002B070BD0000002804BFB4
S3150800210008467047FEF77DB8FEE7000040F6441023
S31508002110C2F2000001680131016070477047000093
S3150800212048F2D11248F2052348F2C91CC0F600024B
S31508002130C0F60003C0F6000C80E80E1070470000D9
S3150800214070470000F0B581B040F65815C2F2000598
S315080021502A780F46532A064632D028463021FEF7FB
S315080021602FF8012049F67C5140F688122861002094
S31508002170C0F60001C2F200026861A961EA614FF483
S3150800218000722A62A8626862E862296340F68811CA
S31508002190C2F2000149F6E8226963A8632864E86385
S315080021A06864681E0F21C0F60002BFF35F8F00BF88
S315080021B0535C01394C1C00F8013FF9D1BFF35F8F1E
S315080021C006EB4600EFF311824FF0200181F31188E8
S315080021D005EBC003D3E90810DE6A451C691A18BF67
S315080021E02946022E03F1180303D100BF1E69B14226
S315080021F0FCD01E69B14201D1002005E05E68375463
S315080022000120BFF35F8FD96082F3118801B0F0BD5A
S315080022107047000002F01EBB82B04EF68851CEF21F
S3150800222000010A6841F2040C42F47002C4F2020C7E
S315080022300A605CF8041C41F001014CF8041C00BF5C
S315080022405CF8041C8907FBD5DCF8001001F00C01CA
S3150800225008296FD100210191019A4F2A06D800BF9B
S31508002260019A01320192019A502AF9D3DCF800202A
S315080022700092009A22F0F0020092009A42F0800240
S315080022800092009ACCF80020019101994F2905D8AF
S3150800229001990131019101995029F9D3DCF800100F
S315080022A00091009921F0F0010091009941F0900108
S315080022B000910099CCF8001000210191019A4F2A4B
S315080022C006D800BF019A01320192019A502AF9D321
S315080022D0DCF800200092009A22F0F0020092009AA0
S315080022E042F0A0020092009ACCF8002001910199D0
S315080022F04F2905D801990131019101995029F9D33E
S31508002300DCF800100091009921F0F0010091009985
S3150800231041F0B00100910099CCF80010002101911C
S3150800232001994F2906D800BF0199013101910199F8
S315080023305029F9D3DCF8001021F00301CCF800107D
S3150800234000210191019A12097C2A06D8019A0132C4
S315080023500192019AB2F5FA6FF8D35CF8042C4FF69D
S31508002360FF73CFF6F6631A404CF8042C4FF41F029D
S31508002370CCF804205CF8042C22F480224CF8042CB7
S31508002380CCF80010CCF828105CF8042C42F4803203
S315080023904CF8042C4FF6FE725CF8040C013A41F135
S315080023A00003800301D4002BF6D15CF8040C8003EB
S315080023B001D400BFFEE7DCF8180047F2000140F040
S315080023C08050C4F20001CCF8180008684FF6FF7276
S315080023D040F440400860DCF80000CBF2C372CCF849
S315080023E00000DCF80000CCF80000DCF8000040F43F
S315080023F08060CCF80000DCF8000020F44030CCF80F
S315080024000000DCF8000040F44030CCF80000DCF8AE
S3150800241000001040CCF80000DCF8000040F0006036
S3150800242040F45010CCF800005CF8040C40F08070C2
S315080024304CF8040C5CF8040C8001FBD5086840F4E1
S31508002440803008604868C003FCD5086840F400304E
S31508002450086000BF48688003FCD5DCF800000190DE
S31508002460019820F003000190019840F002000190C5
S315080024700198CCF8000000BFDCF800000007FBD587
S3150800248002B0704710B540F20044C4F2000420467A
S31508002490012105F079FD012817D12046012105F013
S315080024A06FFD40F64C14C2F200042068013020602B
S315080024B0FFF72CFE2068B0F57A7F38BF10BDFFF70E
S315080024C0E7F8FFF77DF90020206010BD10B541F24E
S315080024D00044C4F200042046012105F055FD0028F9
S315080024E008BF10BD2046012105F04AFD46F2247EAC
S315080024F0C2F2000EDEF8001046F2B8320131CEF80C
S3150800250000100021C2F200024FF0020C04E000BFE6
S315080025102831B1F5C87F10D0545C012CF8D1531876
S31508002520DEF800405868DB68201A9842F0D3505C01
S31508002530022818BF02F801C0EAE710BD40F64412A7
S31508002540C2F2000212684FF47A7301FB032141605C
S315080025507047000040F64412C2F2000212681144A5
S3150800256041607047002141607047000040F6441101
S31508002570C2F2000140680968401AC00F704700009F
S3150800258040F64411C2F2000140680968401A20EA80
S31508002590E070704770B545F2000440F20435C4F2A5
S315080025A00004C0F204052046294605F0CDFD46F292
S315080025B08066C2F2000698B1204605F027FD46F26D
S315080025C00470C2F20000016839B1B6F8800020B183
S315080025D046F28060C2F2000088470020A6F8800014
S315080025E005F10111204605F0AFFD50B1204605F072
S315080025F00DFDB6F880107F299EBF4A1CA6F88020DC
S31508002600705405F10211204605F09EFD002808BF0A
S3150800261070BD2046062105F059FD41F21440C4F26A
S3150800262001000221016070BD70B544F6000440F255
S315080026300435C4F20004C0F204052046294605F014
S3150800264083FD002841D000262046C4F2020605F084
S31508002650DDFC3046022102F099FA81B2C0F580709D
S3150800266080B2B0F5807F46F27A5228BF4FF4807068
S31508002670C2F20002B1F5807FA2F800010AD046F244
S315080026807C60C2F20000016821B146F27A50C2F2BB
S31508002690000088473046022102F0A2F9304602219E
S315080026A0012202F02BFA304602214FF4807202F022
S315080026B05DFA46F27A52C2F200023046022102F070
S315080026C025FA3046022102F09DF905F1021120464D
S315080026D005F03AFD002808BF70BD2046062105F022
S315080026E0F5FC41F21440C4F20100012101602046C4
S315080026F0042105F045FD20464FF44171BDE87040C0
S3150800270005F016BDFEE70000B0B582B040F2280518
S31508002710C2F20005E9680446884768698047686A1E
S3150800272070B1AA6A62B1200C8DF80500200A8DF8EE
S3150800273006000DF1050003218DF8074090470AE0D1
S31508002740296AC4F307408847296AC4F307208847DB
S31508002750296AE0B28847E8698047A9690446884734
S3150800276028698047204602B0B0BD0000F0B581B0A8
S3150800277040F22807C2F200070D46F96814460646D5
S31508002780884778698047786A90B1BA6A82B1300C0E
S315080027908DF80100300A8DF802000DF101000321C1
S315080027A08DF8036090477A6A28462146904713E0D9
S315080027B0396AC6F307408847396AC6F30720884747
S315080027C0396AF0B288473CB1013D00BFF8698047D5
S315080027D0013C05F8010FF9D1B86980473869804787
S315080027E001B0F0BDF0B581B040F22806C2F200068D
S315080027F00C46F1680546884770698047B26A45F015
S3150800280004076AB1280C8DF80000280A8DF8010023
S31508002810684604218DF802708DF8034090470DE054
S31508002820316AC5F307408847316AC5F307208847E8
S31508002830316AF8B28847316A20468847B0698047C6
S315080028403069804701B0F0BD2DE9F04182B040F211
S315080028502807C2F200078846F968144606468847DC
S3150800286078698047BA6A46F0040582B1300C8DF85B
S315080028700500300A8DF806000DF1050003218DF8D4
S3150800288007509047BA6A40462146904714E0396A8D
S31508002890C6F307408847396AC6F307208847396A66
S315080028A0E8B2884744B1A8F1010500BF396A15F8AE
S315080028B0010F8847013CF9D1B869804738698047D4
S315080028C002B0BDE8F081000041F27660C2F2000075
S315080028D00021017046F27550C2F20000017046F2FE
S315080028E07650C2F20000017046F27450C2F200003F
S315080028F0017070472DE9F04F81B046F27558C2F263
S31508002900000898F80000A8B346F2765941F2FC4A46
S3150800291041F2766741F2DC4BC2F20009C2F2000AC4
S31508002920C2F20007C2F2000B03E000BF98F80000ED
S3150800293000B399F8001001380AEBC1021AF83140C1
S31508002940013101F00F0189F800103978556800291E
S3150800295088F80000EAD0002604E000BF387801367F
S315080029608642E3D25BF82620002AF7D0204629467D
S315080029709047F3E701B0BDE8F08F0000042888BF50
S315080029807047B0B546F2755EC2F2000E9EF800308A
S315080029900F2B16D846F2745CC2F2000C9CF8002085
S315080029A041F2FC44C2F2000404F83200501C00F064
S315080029B00F0004EBC2058CF80000581C69608EF8FD
S315080029C00000BDE8B040704741F27662C2F20002EC
S315080029D01178072988BF70474B1C137041F2DC42F7
S315080029E0C2F2000242F82100704700004FF0020CC4
S315080029F0B1B142EA000313F0030311D172B14FEAF1
S31508002A00920C01230439BCF1010F88BF930800BF5B
S31508002A1050F8042B013B41F8042FF9D14FF0000C74
S31508002A20604670472DE9F04782B082460120019042
S31508002A3000294FF002005BD0894642EA0A01904617
S31508002A4011F0030154D102F067FC40F2053002F0A0
S31508002A504FFB4FF4417002F04BFB40F2023002F09C
S31508002A6047FB08F2FF70C40A0ED00125574600BF7F
S31508002A70384602F063FBA54207D207F5006700282F
S31508002A8005F10105F4D000E00020B8F1000F4FEA87
S31508002A90980611D080B9A9F104040125574600BF4C
S31508002AA054F8041F384602F05FFCB54204D20437D6
S31508002AB0002805F10105F3D0B8F1000F14D0002164
S31508002AC0012E98BF012600BF019A6AB1DAF80020E4
S31508002AD0D9F800300AF1040A9A421CBF0191022073
S31508002AE0013E09F10409EFD1044602F011FB204624
S31508002AF0C0B202B0BDE8F0872DE9F04F89B0814633
S31508002B00002503A890468A46CDF81F500795CDE9BB
S31508002B100555CDE9035505F02DFF40F2E40BC2F249
S31508002B20000B0BF1800650465946324602F084FAED
S31508002B3068B19BF88010002967D09BF881209BF824
S31508002B4082309BF8837033A0009706F0DDF946F2D1
S31508002B504857C2F2000738464946FFF7E1FABBF87C
S31508002B60842038463146FEF7ABFB40F66C404FF4FE
S31508002B700066C2F2000039464FF47A725346CDE930
S31508002B8000680296FEF728FE9BF8050740F6F00750
S31508002B9040F25406C2F20007C2F2000687F8210086
S31508002BA00BF20660F5763861FDF72BFBF8600BF241
S31508002BB00670F861FDF725FB4FF0030CB86187F83E
S31508002BC02050C7F804C03A68D7E90235D7E9041493
S31508002BD0D7E9077EC6E9072CC6E90D070420307237
S31508002BE00BF18800F0600BF58470C6E90FE00BF571
S31508002BF0C470F0640A2030830120C6E90935C6E9A5
S31508002C000B14B07609B0BDE8F08F11A006F0B0FE3F
S31508002C10FEE700BF5573652044656661756C7420D0
S31508002C2053657276657220496E7465726E65742096
S31508002C3050726F746F636F6C20416464726573734E
S31508002C403A25642E25642E25642E25640D0A000077
S31508002C504E6F2064656661756C742073657276655F
S31508002C607220616464726573732C20756E61626C80
S31508002C706520746F20636F6E6E65637420746F20B1
S31508002C80746865207365727665720D0080B588B0C4
S31508002C9005F02CFE05F0CCFC05F0FEFD05F0E8FE7F
S31508002CA040F6DC4040F2AC01C2F20000C2F200017C
S31508002CB003F0F2F80DF1090005F05CFE42F2B801E6
S31508002CC041F6B802C2F20001C2F200020020FFF784
S31508002CD013FF42F60550C0F60000FFF775FE49F6E9
S31508002CE0294C47F63951C0F6000CC0F600014FF4DE
S31508002CF0FA7001220023CDF800C000F0DFFE08B00C
S31508002D0080BD0000002818BF7047084600F01CB8B0
S31508002D1041B1421E002000BF12F8013F0139184494
S31508002D20FAD100E000204042C0B2704749B1421EC5
S31508002D30002000BF12F8013F01391844FAD1C0B289
S31508002D4070470020C0B270472DE9F041A0B001F0ED
S31508002D505DF9002853D032A1044601F053F98046A4
S31508002D6030A1204601F04EF9D8F8101006462FA0DB
S31508002D7006F0CAF849F604350027C0F6000502E051
S31508002D800137032F0BD055F83710304601F03AF9C2
S31508002D900028F5D005EBC70149688847F0E76F4674
S31508002DA038468021FDF70CFA46F26456C2F2000650
S31508002DB00020D8F8102030701EA1384606F0B4F866
S31508002DC03846B760FDF71DFAF06040F2E400C2F23B
S31508002DD0000000F2055540F66C40C2F20000294694
S31508002DE03246FEF7BDFE80B140F6C840C2F200008A
S31508002DF00321017019A023A106F086F80AE02AA08B
S31508002E0020B0BDE8F04106F0B3BDB26821A029465E
S31508002E1006F07AF8204601F0C9F820B0BDE8F0813E
S31508002E2069640000706172616D73000069643A2517
S31508002E30730A00007B226964223A222573222C2217
S31508002E40636F6465223A3230302C226D7367223AFA
S31508002E502273756363657373227D00005B23257394
S31508002E60235D20224D5154545075626C6973682055
S31508002E706572726F72210A22204552524F52210AF8
S31508002E80000000006170705F70617273655F6D733A
S31508002E90670000007075626C6973683A25732C25A3
S31508002EA0730D0A0D0A0000006A736F6E2070617256
S31508002EB07365206661696C2E0D00000001460120CD
S31508002EC0FFF75CBD10B544F60004C4F200042046C2
S31508002ED04FF4165100F0D6FE04F500604FF4165173
S31508002EE000F0D0FE42F6BD60C0F60000BDE8104016
S31508002EF000F09ABE2DE9F04F83B045F6D47AC2F2B7
S31508002F00000A48F2000450464FF47871FF22C0F6D2
S31508002F100304FDF74EF942F6B800C2F200004FF47A
S31508002F205B51FF22FDF745F946F2605BC2F2000BE2
S31508002F3000208BF8000004F5F04051464FF47872F3
S31508002F40FFF754FD064632A04FF4787105F0DCFF12
S31508002F5026B136A03FA105F0D7FF02E042A006F051
S31508002F6007FD49F6D8494FF00008C0F6000955464E
S31508002F7007E000BF08F10108B8F1200F05F11F05A9
S31508002F801ED0C8EB48101AF80010FF29F2D03CA052
S31508002F9005F0BAFF002400BF281941788278C37863
S31508002FA0067947794846CDE9006705F0ADFF05344F
S31508002FB01E2CF1D19BF8000001308BF80000D9E7F0
S31508002FC09BF8001031A005F09FFF42F6B80148F2C1
S31508002FD00000C2F20001C0F603004FF45B52FFF78F
S31508002FE005FD60B149F6474049F6C541C0F60000FF
S31508002FF0C0F6000103B0BDE8F04F05F085BF49F6FD
S315080030009940C0F6000003B0BDE8F04F06F0B0BC2A
S315080030106D795F70616E656C5F696E666F20206C96
S31508003020656E6774683A25640A0000005B23257399
S31508003030235D20226C6F61645F70616E656C5F63EF
S315080030406667206572726F720A22204552524F5285
S31508003050210A00006170705F6C6F61645F70616E59
S31508003060656C5F63666700006C6F61645F70616EB4
S31508003070656C5F63666720737563636573732100A8
S31508003080616464725B253032585D0A0070616E6552
S315080030906C5F636F756E743A25640A002DE9F04F0C
S315080030A081B003280C4644D002282ED001281CBF24
S315080030B001B0BDE8F08F49F64550C0F600000FF2A2
S315080030C0F83105F021FFB4F8000170B149F64A5508
S315080030D00026C0F6000500BFA15D284605F014FFCE
S315080030E0B4F8000101368642F6D30A2006F03AFC07
S315080030F02078AA2831D1B4F80001B0F5807F36D9F6
S3150800310049F61F50C0F6000028E040F6F435C2F232
S31508003110000528464B21FDF753F8204629464B2241
S3150800312000F000FC0146284601B0BDE8F04F00F06B
S315080031302BBA40F64045C2F2000528462821FDF77D
S315080031403FF820462946282200F0ECFB284628218D
S3150800315001B0BDE8F04F00F049BBD8A049F6505180
S31508003160C0F6000101B0BDE8F04F05F0CDBEA1786C
S31508003170E01CFFF7CDFD617A884267D146F2B43389
S31508003180E078C2F200036179187046F2B530C2F2EF
S315080031900000A279017046F2B63046F26157C2F2D3
S315080031A00000C2F20007027021FA02F0397800F036
S315080031B00100002946F2B731C2F200014FF0000AB9
S315080031C0087030D0CEA4002505E000BF0135387858
S315080031D0E9B2814227D2E8B200F0B4F9D0B146F29A
S315080031E0B432C2F2000201781278914216D106462C
S315080031F0204605F089FE46F2B630C2F20000007895
S3150800320000EB8000304400F1010A0720092808D1A4
S31508003210DCE700BF0920092803D1D7E700200928E1
S31508003220D4D00028D2D0BAF1000F11D0387808B31C
S31508003230002400BFE0B200F085F901343878E1B225
S315080032408142F7D3B0FA80F0400914E0A3A085E7DD
S3150800325046F2B430C2F20000027849F6F34049F665
S315080032605051C0F60000C0F6000101B0BDE8F04FAD
S3150800327005F04ABE0120002840F085809AF8000033
S315080032800E2840F080804FF000084FF00B090AE046
S3150800329046F26150C2F2000008F1010800785FFAB0
S315080032A088F181426FD25FFA88FB584600F04AF9E6
S315080032B0064600272CE000BF46F2B63245F6A8754A
S315080032C0C2F20002C2F20005127846F2B73311FBC9
S315080032D00951C2F200030C5C01251B7805FA02F2BB
S315080032E024EA0205002B18BF44EA020546F2B53265
S315080032F0C2F2000212780D54002A18BF0122F9B250
S3150800330002F00102584600F0E3F90137062FBFD054
S3150800331007EB87029AF80100324492789AF800304F
S31508003320B0F1FF0118BF0121821A18BF01220E2B26
S3150800333008BF11EA0201E8D1327800284FEAD20123
S3150800334002F00700B8D146F2B433C2F200031B7884
S315080033509342DAD146F2B632C2F2000212789742A6
S31508003360D3D146F2B532C2F20002137845F6A872F6
S31508003370C2F2000211FB092146F2B732C2F200027C
S3150800338012780B54BBE740F6C036C2F20006304648
S315080033903321FCF715FF45F6A870C2F20000D0E904
S315080033A0055ED0E907814AF6FF2C90E8000ED0E9C1
S315080033B00374D0E90923C0F22C1CC6E90881B5615B
S315080033C044F600052C21C6E90A23C6E900C9C6E960
S315080033D002ABC6E90474C4F20005C6F81CE0FFF7A0
S315080033E097FC86F8300040F60D20A6F831003046E6
S315080033F033212A4600F046FD40F68834C2F200041E
S31508003400204636213626FCF7DBFE45F6787740F26D
S31508003410FB10C2F2000720803868B988C4F8020099
S31508003420E18020460C21FFF781FCD7F80D102073A8
S31508003430204640F80D1F002161740421FFF768FC3F
S31508003440D7F81110D7F81520D7F8193044F8131FF4
S3150800345004F8010C20460B216260A360FFF758FCB4
S315080034602073D7F81D00D7F82110C4F80D0049F6C7
S315080034704550C4F81110C0F6000029A105F044FD16
S31508003480A4F1140749F64A54C0F6000417F8011FB8
S31508003490204605F039FD013EF8D10A2006F062FA09
S315080034A040F6883005F50062C2F20000362101B008
S315080034B0BDE8F04F00F0E6BC627566005B23257335
S315080034C0235D202270616E656C206672616D6522CF
S315080034D0204552524F52210A000000005B232573F3
S315080034E0235D202270616E656C206672616D6520B1
S315080034F063726322204552524F52210A000000008F
S315080035006366672D3E616464723A253032582070CE
S31508003510616E656C5F616464723A253032580A00E0
S31508003520657874656E645F74785F6275660000001E
S3150800353042F6B801C2F200014FF4DB7210FB02102A
S315080035407047000045F6D471C0EB4010C2F2000186
S315080035500844704746F26050C2F20000007870478F
S3150800356080B5FFF7C7FCFFF7F5FF46F26152014643
S31508003570C2F2000243F29D00C0F600001170BDE8D9
S315080035808040FFF721BA0000B0B54B29044611D098
S3150800359010290BD10D4640F20C01C2F2000120465B
S315080035A01022FCF743FE90B34B2D03D039A043A15C
S315080035B005F0AAFC20781F281DD8617806291AD29A
S315080035C042F6B802C2F200024FF4DB7310FB032086
S315080035D0492211FB020504F10B0128464022FCF79B
S315080035E0D6FDD4F80200D4F8061028646964A07AD7
S315080035F085F84800B0BD49F66D4049F6B041C0F6B9
S315080036000000C0F60001BDE8B04005F07DBC42F6FA
S31508003610B80148F20000C2F20001C0F603004FF4F8
S315080036205B52FFF7FFF928B105A00FA1BDE8B0402E
S3150800363005F06ABC11A0BDE8B04006F099B900BF14
S315080036405B232573235D2022736176655F62696E4D
S31508003650645F636667206572726F722220455252F4
S315080036604F52210A000000006170705F7361766531
S315080036705F62696E645F6366670000007361766502
S315080036805F62696E645F63666720737563636573FB
S31508003690732100005B232573235D202242494E4493
S315080036A05F494E464F5F53495A45206572726F729D
S315080036B022204552524F52210A0000006170705F65
S315080036C07365745F62696E645F6366670000000015
S315080036D0F0B581B014460D46FFF72AFF492115FBC0
S315080036E0010045F678750021C2F2000506E04B197F
S315080036F0113300BF1A700131402918D04356B3F16F
S31508003700FF3FF8DC0278FF2AF5D0002C224618BFC6
S3150800371003F07F02032988BF0B2902D86B180D33E3
S31508003720E8E71729E3D91F29E5D84B19F7E7403009
S31508003730002109E0002C6B5C0CBF23EA02021A4345
S315080037406A540131092912D0425CA2F1FF0313F130
S31508003750FE0FF6D30429EDD90829F2D06B18002CF0
S315080037605F780CBF27EA02023A435A70E9E749F63E
S315080037704550C0F6000017A105F0C6FB49F64A54A5
S315080037806E1E0627C0F6000416F8011F204605F02F
S31508003790BBFB013FF8D10A2006F0E4F849F645508C
S315080037A0C0F600000EA105F0AFFB49F64A540C35E9
S315080037B03026C0F6000400BF15F8011F204605F0A4
S315080037C0A3FB013EF8D10A2001B0BDE8F04006F09F
S315080037D0C9B800BF72656C61795F73656C5F31004B
S315080037E06C65645F73656C5F3100000090F827C0F4
S315080037F0BCF1200F03D33FA045A105F085BBB0B5AA
S3150800380045F6D473CCEB4C12C2F200039D18002384
S3150800381013E000BFC11891F801E003EB83042C44C0
S3150800382084F801E04A79A2704A7AE2704A7B2271EA
S31508003830497C61710133062B1AD0032BEAD9042B74
S315080038400AD1417D6975817DA975C17DE975817E3C
S315080038502976C17E6976EDE7017FA976417FE9760B
S31508003860817F2977C17F697790F82010A977E1E7EA
S3150800387045F6D4714FF60000C2F20001C0F6030007
S315080038804FF4787285F800C0FFF7CCF8BDE8B04071
S3150800389018B103A00CA105F037BB10A006F068B854
S315080038A05B232573235D2022736176655F70616EE5
S315080038B0656C5F636667206572726F722220455277
S315080038C0524F52210A0000006170705F736176657D
S315080038D05F70616E656C5F6366670000736176652D
S315080038E05F70616E656C5F63666720737563636599
S315080038F0737321005B232573235D20226164647240
S31508003900206572726F7222204552524F52210A0068
S315080039106170705F7365745F70616E656C5F636616
S31508003920670000002DE9F0414FF0000770B30C4620
S3150800393061B35AB305461746FCF763FC86B246B32D
S3150800394010F0010025D1FCF70FFC016800222B4678
S31508003950384600BF13F8017BCF5D87EA87073F0625
S3150800396019D50132B242F5D3E0B1760800270FF235
S315080039705C08B04238BF0646E21928464146FCF7BD
S315080039807BFC0137B74205F10205F5D3B8B2BDE8AD
S31508003990F08106A000E00FA049F61C31C0F6000130
S315080039A005F0B2FA0027B8B2BDE8F0815B232573AB
S315080039B0235D20227374725F6C656E206572726F68
S315080039C07222204552524F52210A00002532686859
S315080039D0780000005B232573235D20226973206E1F
S315080039E06F742068657822204552524F52210A008A
S315080039F046F2B8310020C2F2000100228B18885422
S31508003A002832B2F5C87F1876F8D110B584B040F2DE
S31508003A10057003F0C7F941F20044C4F200042046D9
S31508003A2004F028F9772000900020019040F2E73052
S31508003A3002906946204604F043FA2046012104F024
S31508003A409FFA2046012104F097FA204604F032FA3C
S31508003A5037200021012202F087FA02A005F088FF2C
S31508003A6004B010BD6170705F74696D65725F696ED0
S31508003A7069740000F0B581B046F2B83546F224768E
S31508003A800024C2F20005C2F2000607E0306878603A
S31508003A90012028552834B4F5C87F0CD0285D0228A3
S31508003AA0F8D12F19396909B178698847387A012810
S31508003AB0ECD00020EDE701B0F0BD00002DE9F041A3
S31508003AC08CB000284FF0010418BF002903D1204606
S31508003AD00CB0BDE8F081DDF84880B8F1000F0FD0D2
S31508003AE0054640461C460F461646FCF78AFB234603
S31508003AF004463246394628460F2C01D90424E6E7FF
S31508003B0046F2B836C2F200060024354615F8287B78
S31508003B1027B101340A2CF9D14FF0FF34002C4DD4CB
S31508003B2001278DF82C7046F22477C2F200073F6809
S31508003B30B8F1000F0997CDE904314FF000018DF86F
S31508003B4020200690CDE90211CDE900119DF82C0040
S31508003B5004EB840206F832009DF82B0006EBC2053A
S31508003B60E870BDF82900A5F80100099868609DF875
S31508003B70200028729DF81F00E872BDF81D00A5F800
S31508003B8009000698E8600598286104986861009A13
S31508003B90284640F8182F039A6A62029A2A62019AFE
S31508003BA0EA610AD098F800203AB141460F22FCF79C
S31508003BB012FB002085F8270000E00170022000EAC9
S31508003BC0947484E710B540F2046003F0EBF840F211
S31508003BD0127003F0E7F840F2056003F0E3F84FF4DB
S31508003BE0C06003F0DFF841F20004C4F20104204685
S31508003BF0182103224FF4806301F008FF20460421B0
S31508003C0003224FF4006301F001FF1020C0F21400F4
S31508003C10012101F057FF04F58060102103220123DA
S31508003C20BDE8104001F0F2BE46F27C61C2F2000126
S31508003C300860704710B540F2056003F0B3F840F22B
S31508003C40046003F0AFF840F2147003F0ABF841F2E9
S31508003C500044C4F20104A4F58060182103224FF43D
S31508003C60805301F0D3FE204604210322042301F0E9
S31508003C70CDFE2046102103220223BDE8104001F0A4
S31508003C80C5BE00002DE9F04788B00D4645F2000193
S31508003C90C4F2000144F600048842C4F2000400F0AD
S31508003CA0A980A04240F0A380FFF78CFF41F21440A0
S31508003CB0C4F201004FF00108C0F800804FF4A0607C
S31508003CC003F070F840F2015003F06CF8204604F057
S31508003CD0A5F92046294604F063F9204600214FF04D
S31508003CE0000904F069FA2046002104F053FA204638
S31508003CF0002104F03DFA2046002104F003FA20468C
S31508003D00002104F0F5F92046082104F04BFA204674
S31508003D10042104F035FA2046402104F0BDF9204676
S31508003D2004F0CEF920464FF4417104F001FA20461A
S31508003D3040F2063104F0FCF927200021012202F0A6
S31508003D4013F90025C4F202052846022100F07EFE7A
S31508003D5001AE304600F0FCFE46F27A50C2F2000090
S31508003D60CDE903094FF4807704344FF4005A284606
S31508003D70022132468DF81E9005970194ADF81C7005
S31508003D80CDF80890CDF818A000F07EFE284602214E
S31508003D9000F04AFE2846022100F0C8FE2846022105
S31508003DA000F030FE2846012100F050FE304600F0B3
S31508003DB0CFFE2846012132468DF81E80CDE90399AB
S31508003DC0CDF814900194ADF81C70CDF80890CDF894
S31508003DD018A000F059FE2846012100F025FE2846C5
S31508003DE0012100F0A3FE2846012100F00BFE08B0D1
S31508003DF0BDE8F087FFF71EFF41F21440C4F2010048
S31508003E00022104F500640160204604F007F9204603
S31508003E10294604F0C5F82046002104F0CDF92046CD
S31508003E20002104F0B7F92046002104F0A1F9204644
S31508003E30002104F067F92046002104F059F92046CC
S31508003E40082104F0AFF92046042104F099F9204628
S31508003E5004F036F920464FF4417104F069F920461A
S31508003E6040F2063104F064F9204640F2053104F0C8
S31508003E705FF935200021012208B0BDE8F04702F0BD
S31508003E8073B800002DE9F0410C4645F20001C4F272
S31508003E9000018A42054646D044F60000C4F20000F6
S31508003EA0824266D1002D18BF002C62D041F2084725
S31508003EB0C4F201073868C007FCD146F22C78C2F272
S31508003EC00008A8F8004044F6000446F22876C4F232
S31508003ED00004C2F2000620460021356004F050F9BD
S31508003EE020464FF4417104F017F900250120C4F269
S31508003EF00205B8602846012100F072FD326828469E
S31508003F00012100F003FEB8F800202846012100F040
S31508003F102DFE2846012100F075FD20468021BDE8CA
S31508003F20F04104F0C3B8002D18BF002C21D041F28F
S31508003F300840C4F2010000BF01688907FCD40221C9
S31508003F40002C816008BFBDE8F08144F60000C4F289
S31508003F500000002700F500663046072104F0C0F887
S31508003F600028F9D0E95D304604F054F80137A74235
S31508003F70F2D1BDE8F0810000B0B10368A3B1D0E981
S31508003F8001C2624528BF70478268624508D200BFF1
S31508003F90995C202904D8013294458260F8D162469A
S31508003FA0624504BF511E816070470000002808BFA3
S31508003FB0704770B540F2D8060446C2F2000603E020
S31508003FC0716828468847CCB1607B25462468C007B7
S31508003FD004D1A868002818BFFFF7E8FF687BC00768
S31508003FE003D1286908B171688847687B8007E7D4D8
S31508003FF0286A0028E4D071688847E1E7BDE8704080
S3150800400070470000002201F093BC0000002804BF9E
S315080040100020704710B50446FCF7F3F8411C20460B
S3150800402000220023BDE81040AFF300802DE9F04FD1
S3150800403087B0054641F27C5941F2805A1446002061
S31508004040C2F20009C2F2000A002D0690CDE904006A
S31508004050CDE90200CDE90000C9F80000CAF8000061
S3150800406018BF00291CD1002818BFFFF79FFF002D95
S315080040704FF0000000F08080DDE901124B1E28BFDA
S3150800408018468A4238BF1046002C1CBF29182160E2
S31508004090C9F80050CAF80000002007B0BDE8F08F44
S315080040A0029040F2D800C2F20000CDE90051D0E9F2
S315080040B000128068984606902820CDE904128847A1
S315080040C058B328218346FCF77BF80098002178B17D
S315080040D0029A002A5A460CD1019905291FD329A10B
S315080040E003220327FCF7B8F86946002808BF029799
S315080040F05A46B9B10F68AFB1D1E90130984212D228
S315080041003E5C202E04D8013083428860F8D11846D8
S31508004110984204BF0138886005E00020A3E7694695
S315080041200029E7D10021104602F0CEFB38B3B8F1DA
S31508004130000F58461BD0009981B1DDE901329A4239
S315080041400CD200BF8F5C202F04D801329342029212
S31508004150F8D11A469A4204BF013A0292DDE90132C1
S315080041609A42BFF480AF895C00297FF47CAF1CB10A
S315080041700099029A1144216007B0BDE8F08F5846AD
S3150800418071E700BFEFBBBF0070B540F6D044C2F27E
S31508004190000494F90000012822DC40F2D40540F618
S315080041A0D446C2F20005C2F2000628683168884281
S315080041B024BF012070BD40F6D140C2F2000000784D
S315080041C0042818BF02281AD103F05EFA00203060CE
S315080041D0306821780A30286001310120217070BDCD
S315080041E040F6D145C2F20005287801280CD00428EB
S315080041F001D002280BD103F033F9012005E001288C
S31508004200E4D103F02DF9E1E70020287000E0012051
S3150800421040F6D442C2F200020021116040F2D402F4
S31508004220C2F200020A231360217070BD082882BFFB
S31508004230FF2040B2704770B5044646014FF48470BB
S3150800424000EB441528461021FEF7CCFA2846FEF75F
S315080042505BFA0028FAD146F402701F21FEF7C2FA6B
S3150800426046F2087146F20A73C2F20001C2F200036E
S3150800427001200A881D88A040824325EA000018808C
S3150800428046F214700A80C2F20000002120F81410C9
S3150800429046F20C70C2F20000015506F5427400BFE2
S315080042A02046FEF731FA0028FAD10120BDE8704011
S315080042B040B27047082882BFFF2040B270472DE9F8
S315080042C0F0414601804606F108000F461546FEF7FE
S315080042D01BFA00F00F00012836D106F54274204675
S315080042E0FEF712FA132831D1386800BA013810F1EE
S315080042F0030F2DD875B340F60840394630430422DB
S31508004300FEF7A2FA41F208003043290AFEF76AFAD4
S3150800431041F208103044E9B2FEF764FA06F58475EE
S3150800432028460421FEF75EFA2846FEF7EDF900282E
S31508004330FAD146F20870C2F20000008820FA08F0A6
S31508004340C0070CD0002006E0FB2004E0FD2002E0B8
S31508004350F42000E0F520BDE8F04140B2704746F48D
S31508004360027500BF2046FEF7CFF917280CD028465D
S31508004370FEF7CAF9000709D42046FEF7C5F9002852
S315080043804FF0FC00EED1E6E70120E4E728460821D5
S31508004390FEF728FAF320DEE770B50F2800F2F7805B
S315080043A00C46DFE810F01000860097002200B100E6
S315080043B0C300A600E5007300D0001E003F00F10010
S315080043C0BE0013008F0004F04DFCDDE04FF43850BA
S315080043D0FEF79AF900F038003038B0FA80F0400954
S315080043E076E0204604F0B8FCCEE02088050A00F006
S315080043F0F0014FF4A850FEF7F5F900264FF40274C1
S3150800440007E000BF2034B4F5427F06F1010600F04C
S31508004410BB8025FA06F0C007F4D020461F21FEF718
S31508004420E1F9EFE74FF43850FEF76EF9C0F3801163
S3150800443000F038002170A0F13801A0F12002B1FA8D
S3150800444081F1B2FA82F2490952091143A0F1100228
S31508004450102A617000F29E80012140F2011301FAD0
S3150800446002F2C0F201031A4208BF0021A0F10802B5
S31508004470182AA17007D8012000FA02F10122C0F219
S315080044800112114200D10020E0707DE040F22800C0
S31508004490C2F2000081782170C17861700179A1703B
S315080044A04179E17081792171C07960710020A0712C
S315080044B06AE02146002C18BF08312046BDE8704046
S315080044C004F094BA4FF43850FEF71EF900F00100D4
S315080044D0207059E04FF4A850FEF716F905464FF438
S315080044E0B850FEF711F905F0F00141EA00202080E6
S315080044F04AE061784FF49850FEF774F921784FF442
S31508004500A050FEF76FF93FE02088040AC1B24FF4C5
S31508004510B050FEF767F94FF4C0502146FEF762F92E
S3150800452032E02078BDE8704004F04EBC4FF4B0503D
S31508004530FEF7EAF805464FF4C050FEF7E5F845EAF7
S315080045400020208020E04FF43850FEF7DDF800F018
S315080045507F014FF43850FEF745F94FF43850FEF70F
S31508004560D3F840F080014FF43850FEF73BF90BE0E2
S315080045704FF49850FEF7C8F805464FF4A050FEF7DA
S31508004580C3F840EA05202080002040B270BDFF2015
S3150800459040B270BD002169E72DE9F04F8FB0056D77
S315080045A0814646696C6808468846FDF7E9FF034672
S315080045B0284631460122A047012848D14046CDF871
S315080045C01880FDF7DDFF804601244FF0000B0DF142
S315080045D0200A0025032D01D9012611E0D9F850003B
S315080045E051464768012243460126B847012807D1A4
S315080045F09DF82000002600F07F0004FB00BBE401C4
S3150800460026B99DF9200001350028E3D4D9F814000D
S3150800461059460130FDF756FADDF81880BBF1010F4F
S3150800462010DBD9F81410D9F8505008446C68471CA8
S315080046304046FDF7A5FF0346284639465A46A04791
S31508004640584504D1D9F814000078000901E04FF064
S31508004650FF3086B20D284FF0000752D0052E2AD01B
S31508004660032E7BD108A9D9F81440881C4A1C0B1DB7
S3150800467001F10807D9F80CC00C310CADCDE90214CC
S3150800468007A9CDE90057CDF810C0FDF76FF9012845
S3150800469042D107980CA98DF8200008AA484600F0D0
S315080046A0E5F89DF82000002851D0012837D00228C7
S315080046B044D1052234E0D9F80C70D9F8143007A88B
S315080046C00CA908AA0097FDF70BF901281FD1D9F8FC
S315080046D00810D9F81000BDF82070062200230097AC
S315080046E0FDF7BCFA012812DB01464846424602F0AD
S315080046F013FE0746002818BF4FF0FF37781C2DD148
S315080047002FE01CA005F034F989F81C7026E04FF05C
S31508004710FF37781C22D124E0002700201DE0042260
S31508004720D9F80810D9F81000BDF8247000230097AE
S31508004730FDF794FA0146012903DA0BE00021012965
S3150800474008DB4846424602F0E7FD013002D0012068
S31508004750002702E000204FF0FF3710B1484601F06D
S3150800476067FA002F18BF4FF0FF3630460FB0BDE886
S31508004770F08F00BF50494E47524553500000000085
S3150800478080B540F63811C2F200014FF47060042279
S31508004790FEF75AF840F63C11C2F200014FF4A06049
S315080047A00422FEF751F840F63411C2F200014FF424
S315080047B080700422BDE88040FEF746B880B5002028
S315080047C08021FEF70FF80020FDF79EFF40F618112E
S315080047D0C2F200014FF410600622BDE88040FEF7E1
S315080047E033B8000080B500208021FDF7FBFF0020CC
S315080047F0FDF78AFF40F63811C2F200014FF47060E7
S315080048000422FEF721F840F63C11C2F200014FF4EB
S31508004810A0600422FEF718F840F63411C2F200012F
S315080048204FF480700422FEF70FF840F61811C2F212
S3150800483000014FF410600622BDE88040FEF704B878
S3150800484040F6CC41C2F20001086000BF08680028A3
S31508004850FCD1704740F6CC40C2F20000016800293E
S3150800486008BF704701680139016070472DE9F04FAC
S3150800487085B0884600F1240900274FF0FF3B0292D5
S31508004880019006E0834208BF002A0CD00137052FA5
S3150800489047D059F837100029F8D0404609EBC70A1F
S315080048A0FDF72CF960B1DAF804100029EED0029869
S315080048B0CDF81080039003A888474FF0000BE5E772
S315080048C0DAF80010D8E901630A789819002AD9D0CD
S315080048D0012ED7DB441E00BF1E782F2A01D02F2EAB
S315080048E0D0D0232A254612D02B2A06D0B242C9D1C7
S315080048F0232A25460BD02B2A11D101331A46834287
S3150800490004D2134613F8016B2F2EF7D1551E11F852
S31508004910012F6B1C002AB5D08342DDD3B2E71D46B2
S31508004920F5E71BF1010008D10198C16C49B102985D
S31508004930CDF81080039003A88847002005B0BDE88D
S31508004940F08F4FF0FF3005B0BDE8F08FFEF708BED8
S31508004950082882BFFF2040B2704770B5460104465A
S3150800496006F10800FDF7D0FE00F00F0001281DD162
S3150800497006F5847528460821FDF734FF2846FDF715
S31508004980C3FE0028FAD146F20A7146F20872C2F24C
S315080049900001C2F20002012012880B88A0401042D2
S315080049A023EA0000088006D0002000E0FB20BDE8CE
S315080049B0704040B2704706F5427546F4027600BF6D
S315080049C02846FDF7A1FE48B13046FDF79DFE0007D3
S315080049D0F6D52046FFF72AFCF320E8E70120E6E7AC
S315080049E040F20042C4F20202904202D1052900D3E5
S315080049F0FEE701EB810100EB8100816821F00101EE
S31508004A008160704740F20042C4F20202904202D12D
S31508004A10052900D3FEE701EB810100EB81008168DF
S31508004A2041F001018160704740F20042C4F202027F
S31508004A30904202D1052900D3FEE701EB810100EB84
S31508004A408100816821F020018160704740F20042B0
S31508004A50C4F20202904202D1052900D3FEE701EB17
S31508004A60810200EB82029368890023F001039360B8
S31508004A7000239360D360136153610F22436802FADF
S31508004A8001F119434160704740F20043C4F2020342
S31508004A90984202D1052900D3FEE780B5136801EBD9
S31508004AA0810100EB8100036191684161118AC1604F
S31508004AB08168536821F47C5CD168D2F814E043EA33
S31508004AC00C03194341EA0E018160117E83680129AE
S31508004AD023F0400308BF40338360517E8368012971
S31508004AE023F0800308BF80338360917E82680029A3
S31508004AF022F0100218BF1032826080BD8900436818
S31508004B0002FA01F1194341607047000040F2004380
S31508004B10C4F20203984202D1052900D3FEE701EB4D
S31508004B20810100EB810042617047000040F20042BB
S31508004B30C4F20202904202D1052900D3FEE701EB36
S31508004B40810100EB8100816821F480418160704712
S31508004B5050B10021C0F81710C0E90011C0E90211D0
S31508004B60C0E90411704700BFFEE7000040F20043A9
S31508004B70C4F20203984202D1052900D3FEE701EBED
S31508004B80810192B200EB8100C260704740F2004298
S31508004B90C4F20202904202D1052900D3FEE701EBD6
S31508004BA0810100EB8100C068704700002DE9F047DD
S31508004BB0B0B000254FF0C00E6B464FF02E080C46DD
S31508004BC04FF0000A4FF00009AC4600BF14F8017B0D
S31508004BD0BAF1000F07F0C00608BF0CF1010CC02E91
S31508004BE00DD12478BAF1000F67F30D24044408BFE9
S31508004BF00CF1010514F8017B4FF0010AAC46FFB130
S31508004C00FD430EEB05060FFA86FEBEF1000F23D410
S31508004C10013C01333D4600BF14F8016F013D03F81E
S31508004C20016C2E0403F10103F6D1BAF1000F08BF97
S31508004C30BC4403F8018C09F1010901346546C5E74E
S31508004C40B9F1000F04BF2E2703F8017B00271F7058
S31508004C501CF1010306D168E14FF0FF3C1CF101038A
S31508004C6000F0638161448C463CF80A3B4FF0FF37FD
S31508004C701BBA07EB13430E2B00F25981DFE813F03A
S31508004C80F2000F00570157010F0062000F000F00D6
S31508004C900F00570157010F00EA005701A60000242C
S31508004CA0C0216A464FF02E0E67464FF000094FF0B6
S31508004CB00008234617F8016BB9F1000F06F0C00586
S31508004CC008BF0133C02D0DD13D78B9F1000F66F349
S31508004CD00D2500EB050708BF5C1C17F8016B4FF0A4
S31508004CE001092346E6B1F443214409B2002920D438
S31508004CF07C1E0132374600BF14F8015F013F02F8F7
S31508004D00015C3D0402F10102F6D1B9F1000F08BFBA
S31508004D10334402F801EC08F10108671C1C46C9E790
S31508004D20B8F1000F04BF2E2002F8010B0020107006
S31508004D3001E04FF0FF33B3F1FF3018BF0CEB03006F
S31508004D408446F4E00024C0216A464FF02E0E6746DA
S31508004D504FF000094FF00008234600BF17F8016B13
S31508004D60B9F1000F06F0C00508BF0133C02D0DD1FB
S31508004D703D78B9F1000F66F30D2500EB050708BF6E
S31508004D805C1C17F8016B4FF001092346002E74D0FE
S31508004D90F443214409B2002900F1C3807C1E013284
S31508004DA0374600BF14F8015F013F02F8015C3D0475
S31508004DB002F10102F6D1B9F1000F08BF334402F837
S31508004DC001EC08F10108671C1C46C7E701F10C0E47
S31508004DD00025C02269464FF02E0C74464FF0000994
S31508004DE04FF000082B4600BF14F8017BB9F1000FFD
S31508004DF007F0C00608BF0133C02E0CD12478B9F1DC
S31508004E00000F67F30D24044408BF5D1C14F8017BEA
S31508004E104FF001092B46002F7AD0FD432A4412B2DF
S31508004E20002A00F18880013C01313D4614F8016FE3
S31508004E30013D01F8016C2E0401F10101F6D1B9F129
S31508004E40000F08BF3B4401F801CC08F10108013402
S31508004E501D46C9E7887A084410F80B1F084400F174
S31508004E60010C64E0887A01F10E0C1070C87A507053
S31508004E70087B9070487BD07059E0B8F1000F04BFEA
S31508004E802E2102F8011B00211170591C4DD09C449B
S31508004E900025C0216A464FF02E0E64464FF00009E1
S31508004EA04FF000082B4600BF14F8017BB9F1000F3C
S31508004EB007F0C00608BF0133C02E0CD12478B9F11B
S31508004EC0000F67F30D24044408BF5D1C14F8017B2A
S31508004ED04FF001092B46B7B3FD43294409B200290F
S31508004EE03AD4013C01323D4614F8016F013D02F8FF
S31508004EF0016C2E0402F10102F6D1B9F1000F08BFC8
S31508004F003B4402F801EC08F1010801341D46CBE7E1
S31508004F10B8F1000F04BF2E2001F8010B002008701D
S31508004F200BE04FF0FF33591CB1D14FF0000C60462F
S31508004F3030B0BDE8F0874FF0FF33B3F1FF3C18BF40
S31508004F400EEB030CF3E7B8F1000F04BF2E2002F8AE
S31508004F50010B0020107001E04FF0FF33581C1ABFF8
S31508004F600CEB030000F1140C4FF0000CDFE7000017
S31508004F702DE9F043B1B0904640F64012C2F2000265
S31508004F801388C0000133013013801A0A88F802001A
S31508004F90002001AC88F80020A8F803000122C8F810
S31508004FA00600A8F80A00204688F8013088F8052087
S31508004FB0FBF749F9FBF725F9064620462E21FBF7AC
S31508004FC016F93146002818BF011B8CB208F10D05E9
S31508004FD088F80C102CB3B0FA80F04FEA501901AFDC
S31508004FE0284639462246FBF7F6F85FEAC970254493
S31508004FF014D1601C0744361A38462E21FBF7F7F8F9
S31508005000B0FA80F14FEA51193146002818BFC11B82
S315080050108CB2002C05F8011BE2D102E0002005F84D
S31508005020010BA5EB08004FF00121043000B22960FE
S3150800503031B0BDE8F08300002DE9F04F89B00D4688
S315080050400146002014464FF0000AFCF729FB0DF133
S315080050500D06304603F08EFC06F112080FF25C09C5
S315080050604FF0000B03E00BF1010B012010B3404693
S3150800507029462246FCF726FB01280DD0C0B2002897
S31508005080F3D1BBF1020FEED915A004F071FC002094
S315080050904FF0FF3AEAE700BF22786378A778E67808
S315080050A048462946CDE9007603F02EFF4FF0000A60
S315080050B00020DBE7504609B0BDE8F08F3E20547269
S315080050C0616E736C6174656420257320746F202586
S315080050D0642E25642E25642E25640D0A0000000022
S315080050E03E20444E53204661696C65640D000000FD
S315080050F042F2000300F01F018009C4F202034FF0D8
S31508005100010CC2580CFA01F11143C1507047000056
S3150800511042F21000C4F20200016841F08001016009
S315080051204FF2E071C1F6FF710988B1F5007F98BFAB
S315080051307047016C41F080010164704710B58446E0
S315080051404FF2E070C1F6FF700088012442F20C02AB
S31508005150CFF20104B0F5007FC4F2020224D94FF65B
S31508005160FF70C0F60700844566D20223214600BFB9
S315080051701068C0070AD11068C0065ABF106803EA4B
S3150800518050000320012804D007E000BF01200128B1
S3150800519003D1002901F10101EAD1012808BF042041
S315080051A0002800F0948010BD022321461068C0072D
S315080051B00AD11068C0065ABF106803EA50000320D7
S315080051C0012804D007E000BF0120012803D10029E7
S315080051D001F10101EAD1012808BF0420002818BFFF
S315080051E010BD5068022340F002005060C2F808C0A3
S315080051F0506840F04000506000BF00BF1068C0070C
S315080052000AD11068C0065ABF106803EA5000032086
S31508005210012804D007E000BF0120012803D1002C93
S3150800522004F10104EAD1111D012808BF04200A6807
S3150800523022F002020A6010BD4FF0020E234600BF9C
S31508005240106CC0070AD1106CC0065ABF106C0EEA63
S3150800525050000320012804D007E000BF01200128E0
S3150800526003D1002B03F10103EAD1012808BF04206A
S31508005270002898D1506C022340F002005064C2F80E
S3150800528048C01069800748BFC2F808C0506C40F093
S315080052904000506400BF00BF106CC0070AD1106CF4
S315080052A0C0065ABF106C03EA50000320012804D038
S315080052B007E000BF0120012803D1002C04F10104F6
S315080052C0EAD1012808BF042002F14401AFE750687B
S315080052D0022340F002005060C2F808C0506840F04F
S315080052E04000506000BF00BF1068C0070AD11068B0
S315080052F0C0065ABF106803EA50000320012805D0EB
S3150800530091E700BF012001287FF48DAF002C04F13E
S315080053100104E9D187E7000042F20400C4F2020062
S31508005320C168090609D540F22311C4F26751016024
S3150800533048F6AB11CCF6EF5101604FF2E071C1F6B9
S31508005340FF710988B1F5007F0DD9C16C090658BFF0
S31508005350704740F22311C4F26751016448F6AB1155
S31508005360CCF6EF510164704710B584464FF2E070F1
S31508005370C1F6FF700088012242F20C03CFF2010247
S31508005380B0F5007FC4F2020361D94FF6FF70C0F68C
S3150800539007004FF0020E144684451BD21868C00752
S315080053A00AD11868C0065ABF18680EEA50000320CA
S315080053B0012804D007E000BF0120012803D1002CF2
S315080053C004F10104EAD1012808BF0420002800F0EE
S315080053D0818010BD186CC0070AD1186CC0065ABF68
S315080053E0186C0EEA50000320012804D007E000BF1D
S315080053F00120012803D1002C04F10104EAD1012877
S3150800540008BF04200028E4D1586C40F00100586415
S31508005410CCF80010022100BF186CC0070AD1186C1E
S31508005420C0065ABF186C01EA50000320012804D0B0
S3150800543007E000BF0120012803D1002A02F101027A
S31508005440EAD1012808BF042003F144013DE04FF0EA
S31508005450020E14461868C0070AD11868C0065ABF53
S3150800546018680EEA50000320012804D007E000BFA0
S315080054700120012803D1002C04F10104EAD10128F6
S3150800548008BF0420002818BF10BD586840F0010066
S315080054905860CCF8001002211868C0070AD11868AD
S315080054A0C0065ABF186801EA50000320012804D034
S315080054B007E000BF0120012803D1002A02F10102FA
S315080054C0EAD1191D012808BF04200A6822F0010242
S315080054D00A6010BD586840F001005860CCF800100A
S315080054E0022100BF1868C0070AD11868C0065ABF4B
S315080054F0186801EA50000320012804D0E1E700BF3C
S3150800550001200128DDD1002A02F10102EAD1D8E7FB
