:020000040800F2
:10000000F035002045010008611C000819130008A4
:100010004D1C0008C90D0008252200080000000042
:10002000000000000000000000000000551D000856
:100030001513000800000000851C0008591D000869
:100040005F0100085F0100085F0100085F01000810
:100050005F0100085F0100085F0100085F01000800
:100060005F0100085F0100085F0100085F010008F0
:10007000AD1100085F0100085F0100085F01000882
:100080005F0100085F0100085F0100085F010008D0
:100090005F0100085F0100085F0100085F010008C0
:1000A0005F0100085F0100085F0100085F010008B0
:1000B0005F010008C91F00085F0100085F01000818
:1000C0005F0100085F0100085F0100085F01000890
:1000D0005F0100085F0100085F010008D9200008E7
:1000E0005F0100085F0100085F0100085F01000870
:1000F0005F0100085F0100085F0100085F01000860
:100100005F0100085F0100085F0100085F0100084F
:100110005F0100085F0100085F010008112000086E
:100120005F0100085F0100085F0100085F0100082F
:10013000DFF80CD000F0B4FD004800474D4900083E
:10014000F03500200648804706480047FEE7FEE7F6
:10015000FEE7FEE7FEE7FEE7FEE7FEE7FEE7FEE777
:100160005D1D000831010008A0F14101192900D8E6
:100170002030704740EA01039B0703D009E008C91B
:10018000121F08C0042AFAD203E011F8013B00F85C
:10019000013B521EF9D27047D2B201E000F8012BA8
:1001A000491EFBD270470022F6E710B513460A46F7
:1001B00004461946FFF7F0FF204610BD10B504466F
:1001C00004E00B7800F8013B03B1491C521EF8D241
:1001D000204610BDCAB2401E10F8011F8A4202D04C
:1001E0000029F9D100207047421C10F8011B00299A
:1001F000FBD1801A704710B5002200E0521C835CCE
:100200008C5CA34201D1002BF8D1D8B2E1B2401AE4
:1002100010BD034611F8012B00F8012B002AF9D17B
:100220001846704730B505460020034600E05B1CC9
:10023000934205D2EC5CC85C201A01D1002CF6D1A7
:1002400030BD00002DE9FF4F087883B09946FF28A4
:1002500005D0491C2D2804D00024002008E00020EF
:100260000BE00124F9E700EB800003EB4000491CA0
:100270000B78FF2BF7D104B140420023029314788E
:1002800019461D462D2C01D02B2C04D1521C2D2C8F
:1002900013D000240294AA461478FF2C0FD00A250C
:1002A000A3FB057801FB05814FF0000C03FB0C114B
:1002B000521CE3194AEB0101EEE70124EAE781440D
:1002C00053EA010002D019F5C87F06DA039800212D
:1002D000C0E9001107B0BDE8F08F0025AE4E2F46F3
:1002E000DFF8B882184600F083FCCDE90001B9F1CF
:1002F000000002DAC9F1000400E004460023A74A26
:100300001AEB030B42EB045A12E0E00707D02A462F
:1003100033463846414600F0ECF9074688462A46FF
:1003200033461046194600F0E4F905460E466410BF
:10033000002CEAD1DDE90001B9F1000F5A4653461D
:1003400006DA00F0E6FB3A46434600F0E2FB05E041
:1003500000F0CFF93A46434600F0CBF9029A0AB1D1
:1003600081F00041039AC2E90001B3E72DE9FF4F94
:100370001F468DB0D7E901464FF0FF382E20454685
:100380004FF000090B90B9696D1C0E988847396AC7
:10039000824688470028F6D1BAF1FF3F0AD024F4FC
:1003A000D064002E11DDBAF12B0F08D0BAF12D0F59
:1003B0000BD102E0404611B08DE744F48064B96986
:1003C0006D1C0E9888478246761E6946600501D5E9
:1003D0002D2000E02B208DF8000001F1010B0DF124
:1003E000200809E0B9696D1C0E98884782460F986D
:1003F00044F40074761E0560002E02DDBAF1300F61
:10040000F0D00B998A453ED144F0800406E00F9964
:10041000681CA9F1010944F400740860B9696D1CF5
:10042000761E0E98884782463028F0D02BE00B9934
:100430008A4505D1200603D444F08004761E18E0D6
:10044000504607F00BFD08B30DF11302761EAAF11A
:10045000300044F40074934506D20BF8010B2006DB
:1004600007D5A9F1010003E0200602D409F101003B
:100470008146A00502D50F99681C0860B9696D1CFA
:100480000E9888478246002ED1DC53E0002E51DDC5
:10049000BAF1650F02D0BAF1450F4BD1A00549D58D
:1004A000B9696D1C24F44074761E0E988847824604
:1004B000002E0CDD2B2804D0BAF12D0F07D144F407
:1004C0008074B9696D1C0E9888478246761EE005D7
:1004D00001D52D2100E02B2108F8011BCDF82C803F
:1004E00021E00DF12901761E44F4007488450CD2F8
:1004F000AAF1300010F0FF0088F8000002D10B993B
:10050000884509D908F1010806E0E00501D524482D
:1005100001E042F20F708146B9696D1C0E98884760
:1005200082460F980560002E04DD504607F096FCC9
:100530000028D6D1F9690E988847FF208BF8000073
:1005400088F800000020069007904B466A4608A9EC
:1005500006A8FFF777FEA00502D46FF001002AE796
:1005600014F0240F0AD0E00714D1DDE90612386830
:10057000031D3B600068C0E900120BE0DDE90601E5
:1005800000F072FB0146E00704D13868021D3A60B2
:100590000068016028460EE7000014400000F03FAC
:1005A000F1D8FFFF2DE9FE4F804681EA0300C00F1E
:1005B0000C46009021F0004123F00045B8EB02000A
:1005C000A94105D24046214690461C460B460246AC
:1005D00023F00040104347D0270DC7F30A00C3F3B0
:1005E0000A510290401A019040286BDAC3F31300BD
:1005F00040F4801B0098924620B10023D2EB030AFE
:1006000063EB0B0B01985946C0F14002504600F0D5
:100610007EF906460D4650465946019A00F096F975
:1006200010EB08006141002487EA115284EAE77365
:100630001A4340D0009A62B3019A012A4FEA075246
:1006400015DC001B61EB02014FF0004202EA075289
:10065000CDE90042001C41F5801132462B4600F0E6
:100660000AFA03B0BDE8F08F40462146F9E7001BC7
:1006700061EB0201001C41F5801300185B4120185A
:10068000A2F5001747EB030140EAD570B6196D419A
:1006900011E06D084FEA360645EAC0754FEA075289
:1006A000001B61EB0201001C41F5801149084FEA73
:1006B00030000019514132462B4603B0BDE8F04FDF
:1006C00000F0CAB90098012240000023D0EB0202DA
:1006D00063EBE073009821464FEAE074B8EB00004A
:1006E00061EB0401E9E783F000435BE781F000413F
:1006F00058E72DE9FE4F81EA030404F0004421F09D
:10070000004100944FF0000B23F0004350EA010435
:100710005ED052EA03045BD0C3F30A54C1F30A5516
:100720002C44A4F2F3340194A0FB0254C1F313014E
:1007300041F48011C3F3130343F4801301FB02441B
:1007400000FB034E840A970A44EA815447EA835720
:10075000A4FB076802958D0A05FB07854FEA932CD9
:1007600004FB0C542705029D4FEA065847EA16374A
:10077000B5EB08056EEB070C870E920E47EA811762
:1007800042EA8312A7FB0201B6EB0B0164EB000403
:100790002B0D43EA0C335E1844EB1C50DA465146ED
:1007A000E7FB0201C5F313044FEA0B3343EA14538A
:1007B0004FEA0432019C43EA0603A4F10C040294BC
:1007C000009CCDE900B400F056F903B0BDE8F08F0D
:1007D00000200146F9E730B5041E71F1000404DB86
:1007E0004FF00044404264EB0101141E73F1000419
:1007F00005DB1C464FF00043524263EB0403801AB2
:10080000994101D3012030BD002030BD30B5041E18
:1008100071F1000404DB4FF00044404264EB01013D
:10082000141E73F1000405DB1C464FF000435242D6
:1008300063EB0403101A8B4101D3012030BD00206B
:1008400030BD70B5C1F30A5201F000450024C1F378
:10085000130140F2FF3341F480119A4201DA002083
:1008600070BD40F233439A42A2F2334203DC52425B
:1008700000F05CF800E090402C43F1D0404270BDA5
:1008800030B50B46014600202022012409E021FA60
:1008900002F59D4205D303FA02F5491B04FA02F55D
:1008A0002844151EA2F10102F1DC30BD2DE9F05FF4
:1008B0000546002092469B468846064681464024CF
:1008C0001BE0284641464746224600F02FF8534693
:1008D0005A46C01A914110D311461846224600F0DC
:1008E00016F82D1A67EB01084F4622460120002119
:1008F00000F00DF817EB00094E41201EA4F1010491
:10090000DFDC484631462A464346BDE8F09F202AB0
:1009100004DB203A00FA02F1002070479140C2F156
:10092000200320FA03F3194390407047202A04DB88
:10093000203A21FA02F00021704721FA02F3D04058
:10094000C2F120029140084319467047202A06DB75
:10095000CB17203A41FA02F043EAE07306E041FA8D
:1009600002F3D040C2F1200291400843194670477B
:10097000426842B1016811F8013B23B1521EC0E93F
:100980000012184670470121C160881E70474268F6
:100990005AB1C368016843B983688B4205D0491EC8
:1009A000521CC0E90012002070474FF0FF30704722
:1009B0000FB40B0010B58AB00FA900910E994FF03B
:1009C0000004234ACC60214CCDE9064200D0042328
:1009D0006FF00042CDE901321E4A089202466B4692
:1009E0000020FFF7C3FC0AB010BC5DF814FBF0B5A3
:1009F00085B007464FF0FF300091CDE901011E465A
:100A0000002015460C4604903B466A46314604A831
:100A1000FFF7CEFF04990346601825B109B10246DD
:100A200000E022462A6000290ED0002B02DD00994A
:100A3000814209D00094001BCDE901043B466A467F
:100A4000314604A8FFF7B4FF05B0F0BD71090008F6
:100A50008F090008D10C000810B5141E73F10004B2
:100A600008DA401C41F1000192185B411A4301D1A0
:100A700020F0010010BD2DE9F04D92469B4611B1CA
:100A8000B1FA81F202E0B0FA80F220329046FFF72C
:100A90003EFF04460F4640EA0A0041EA0B01534676
:100AA0005A46084313D0114653EA010019D0C8F141
:100AB00040025046FFF73AFF05460E46504659465B
:100AC0004246FFF724FF084305D0012004E02046FA
:100AD0003946BDE8F08D0020054346EAE0762C4318
:100AE00037430A986305E40AA0EB08000022FD0AD8
:100AF00044EA47540A3002D500200146E9E70105DF
:100B000010196941DDE9084500196941BDE8F04D5A
:100B1000A2E72DE9F04D81EA030404F0004B21F037
:100B2000004514464FF0000A23F0004150EA050248
:100B300020D054EA01021DD0C5F30A570246C5F37E
:100B40001303C1F31300C1F30A5640F4801543F4B4
:100B50008013A7EB0608101BD64608F2FD3873EB8E
:100B6000050002D308F1010801E092185B41B8F1D9
:100B7000000F03DA00200146BDE8F08D00204FF49D
:100B80008011064684460EE0171B73EB050705D35C
:100B9000121B63EB050306434CEA010C49084FEABC
:100BA000300092185B4150EA0107EDD152EA030090
:100BB00012D082EA040083EA0501084305D0101B25
:100BC000AB4106D20122002306E000224FF0004391
:100BD00002E06FF0010253101AEB06004CEB0851D3
:100BE00010EB0A0041EB0B01BDE8F04DFFF734BFFD
:100BF0000EB540F2334202920022CDE900221346A4
:100C0000FFF739FF03B000BDC1F30A52C1F313016E
:100C100040F2FF3341F480119A4202DA002001468B
:100C2000704740F233439A42A2F2334202DC52420E
:100C3000FFF77CBEFFF76BBE30B5041E71F10004F8
:100C400004DB4FF00044404264EB0101141E73F1D9
:100C5000000405DB1C464FF00043524263EB0403E3
:100C6000994208BF904230BD01F0004330B421F0FA
:100C7000004150EA010206D00A0DA2F56072C1F3EC
:100C80001301002A02DC30BC00207047440F44EA04
:100C9000C104C100E01830BC00EBC25000F01DB828
:100CA0001CB509480090094801900546009C06E0E3
:100CB000E06840F0010394E8070098471034AC4224
:100CC000F6D3FFF739FA00009C8A0008BC8A0008B6
:100CD000C0B24FF4F05100F037B80029A8BF7047F8
:100CE000401C490008BF20F00100704710B4B0FA62
:100CF00080FC00FA0CF050EA010404BF10BC7047FD
:100D000049B1CCF1200421FA04F411FA0CF118BF16
:100D1000012121430843A3EB0C01CB1D4FEA0061E5
:100D20004FEA102042BF002010BC704700EBC350B8
:100D300010440029A4BF10BC7047401C490008BFE4
:100D400020F0010010BC70477F2801D9002208E084
:100D5000064A02EB5002C007127800D1120902F0D5
:100D60000F02012090400840704700009086000864
:100D700070B58C1810F8015B15F0070301D110F85D
:100D8000013B2A1106D110F8012B03E010F8016B8A
:100D900001F8016B5B1EF9D12B0705D40023521E0D
:100DA0000DD401F8013BFAE710F8013BCB1A921C75
:100DB00003E013F8015B01F8015B521EF9D5A14273
:100DC000D8D3002070BD0000FEE70000F0B581B070
:100DD0000746007814460D46012143F239020023EC
:100DE000002605F0B1FC3968814208D1C8B2294615
:100DF000224602F007FB0138B0FA80F0460930467F
:100E000001B0F0BDF0B581B040F63015C2F200057A
:100E10000C46064600274FF410602946062200972C
:100E200001F034FA28786978AA78EB7808431043FF
:100E3000297918436A79084310430BD140F6000022
:100E4000C0F2DC0028604FF4106029460622AF8013
:100E500001F08AFA40F64010E9782A79C2F20000DF
:100E60006B79067042F6A4408E185140C2F2000021
:100E70001E44594045F27862046040F64410314403
:100E8000C1F23422C2F2000011446C4601604FF4FA
:100E900070602146042201F067FA4FF48070214609
:100EA000042201F061FA40F60C40C2F20000076033
:100EB00040F2EC00C2F200000A21016040F6084056
:100EC000C2F20000077040F60940C2F2000007704D
:100ED00001B0F0BDF0B581B040F60946C2F200069F
:100EE0003078062802D1052001B0F0BD40F640154B
:100EF000C2F2000528784FF4427101EB401001F076
:100F000093F9222805D0287802214422002305F0F5
:100F10001BFC03F0DDFE3178042900F2CF80DFE80E
:100F200001F003BC38890C0040F65010C2F20000FA
:100F30000021016005F0F4F8EFE0062800F0C6801B
:100F4000C0B2052840F0BD8040F6601040F6501158
:100F5000C2F20000C2F2000102780B7840F60844A9
:100F6000C2F200049A424FF00002227040F0D98091
:100F700042784B789A4240F0D48082788B789A42BB
:100F800040F0CF80C078C978884240F0CA80042001
:100F9000CEE0062800F0B080C0B2052840F0918075
:100FA0004FF4D85001F040F904464FF4D8500321D3
:100FB000032701F0A7F9287848F6910140F650136D
:100FC00041F28835C0F60001C2F2000311220095FB
:100FD00005F010FB05464FF4D850214601F092F978
:100FE00015F10D040DD005F037F840F60C40C2F2B3
:100FF000000001680268521A022AFBD3002C40F05C
:10100000A88040F2DC00C2F200000068804740F691
:101010000C40C2F200000021016040F2EC00C2F27C
:1010200000000A22026040F60840C2F2000001708F
:10103000377043E040F2E800C2F200000068411C53
:1010400057D040F60C44C2F200042168B1EB500FB7
:101050004FF0040033D940F6501040F64412C2F26B
:101060000000C2F20002006840F660111368C2F28C
:1010700000010860581C106005F066F940F2EC02AF
:101080000021C2F200020A232160136040F60842E8
:10109000C2F200020420117040E0022811D142F691
:1010A000A440C2F20000006840F650110069C2F28C
:1010B0000001086005F048F902203070012001B0FD
:1010C000F0BD01B0BDE8F04002F006B940F60C40BA
:1010D000C2F200000021016040F2EC00C2F2000008
:1010E0000A22026040F60840C2F2000001700120AE
:1010F0003070042001B0F0BD40F60C40C2F2000098
:101100000021016040F2EC00C2F200000A220260FD
:1011100040F60840C2F2000001700120307001B0BA
:10112000F0BD40F2E400C2F20000006880470320F6
:1011300040F60C41C2F2000100220A6040F2EC01CC
:10114000C2F200010A230B6003212270317001B04A
:10115000F0BD0024046040F2EC00C2F200000A215D
:10116000016040F2E001C2F2000140F60840096867
:10117000C2F200000470884734709FE780B540F6E3
:101180004010C2F20000007802F0F8F840F6094082
:10119000C2F200000621017080BD000040F60C4044
:1011A000C2F20000016801310160704710B50024EF
:1011B000C4F2020420460121022202F061FD00284F
:1011C00008BF10BD20460121012202F051FDA4F507
:1011D000DC30002105F0C6FD20460121BDE81040AD
:1011E00002F0A6BC40F65A12C2F20002107042F69B
:1011F000A840C2F20000016040F65810C2F20000A0
:1012000041F22211018070472DE9F04F89B040F67C
:101210005A17C2F20007054642F6C04B40F610448A
:10122000387802920E46C2F2000B4FF0000AC2F26A
:1012300000040221002200238BF800A0C4F800A0C3
:1012400005F082FA42F6A849C2F20009D9F8002056
:1012500000203146002302F073FF3B78D9F80010DC
:101260004FF0350882B218462B46CDF8008005F0C5
:10127000C1F9387803F068F8024618BB20680328E3
:1012800016D39BF800300020012BC4F800A088BFC3
:101290000120022B4FF0000103F1010638BF0121AC
:1012A000012B88BF00268BF8006020B127E000BF2B
:1012B0000020002118BB0029DBD03878D9F80010B5
:1012C00092B2D1E73878D9F8001003AE0DF10E03D1
:1012D000B2F5807F28BF4FF48072009604F096FC30
:1012E000D9F80010029A0DF1120003F0F5FD044642
:1012F000387802F043F8204609B0BDE8F08F0024AA
:10130000F6E7000040F61040C2F20000016801312B
:101310000160704770470000FEE70000B0B58446EA
:101320000698DDE9044ECCF850102421002500BFBA
:101330004CF8015008314C29FAD10021CCF820108A
:101340008CF81C10CCF84C1001218CE81600CCE96C
:1013500003030CF15400CCF814E0BDE8B04000F0F9
:10136000A3BE0000F0B599B00E4648F2D86101ADB9
:101370000446C0F6000128465822FEF7FBFE206A0C
:1013800038B14FF0FF30002804BF0121216219B0AD
:10139000F0BD17AF384600F087FE6168384600F0B0
:1013A0007BFE002E18BF3546298B04F15400A16145
:1013B00000F066FEA16820692A4600F019FA0128AB
:1013C000DFDB014617AA204604F006FE0028D8D12C
:1013D00017A800F06DFE0028D3D117AD204629468E
:1013E00002F082F9022807D0284600F061FE0028AA
:1013F0004FF0FF30F2D0C6E7FF208DF80300002049
:10140000E36862698DF802000DF102000DF103013D
:1014100000F028F801469DF80300012918BF4FF09D
:10142000FF30B0E770B582B0064601A814460D46FD
:10143000019304F047FBC0F3C00129700109019832
:101440003170694600F0BCF8DDE900210144022A50
:10145000019104DB01A804F03BFB2080012002B0D5
:1014600070BD000070B582B0054601A80C4601921F
:1014700004F028FB00F0F000202816D101986946FE
:1014800000F09EF8DDE900210144022A01910ADB07
:1014900001AE304604F016FBC0092870304604F057
:1014A00011FB2070012002B070BD002002B070BDA1
:1014B0002DE9F04383B00D460D990446002602A89D
:1014C000984617460291019604F0FCFA00F0F001EC
:1014D00030292CD1C0F3C0012170C0F34101296033
:1014E00000F001010298DDF82890397001A900F0A0
:1014F00067F802990646084401990290471802A924
:1015000048463A4604F0ECFA88B10298381A0ED4EC
:1015100028680C9C0B9D012804DB02A804F0D8FA73
:10152000A8F8000002980126391A21602860304688
:1015300003B0BDE8F08300002DE9F04182B00E4613
:101540000899804601A81C461546019104F0BAFA94
:1015500000F0F000902829D10198694600F030F899
:10156000DDE900120244022901921CDB01A8571890
:1015700004F0AEFAA8F8000001980021B8422960F2
:1015800010D20DF1040800BF2868B04212DC4046BA
:1015900004F098FA2968019B4A1CBB422A6044F86F
:1015A0002100F1D3012002B0BDE8F081002002B09B
:1015B000BDE8F0814FF0FF3002B0BDE8F0810000DF
:1015C000B0B540F6A03CC2F2000C00244FF0010E72
:1015D000CCF800000C6000BF032C0BD810F8013BC6
:1015E0000A6803F07F050EFB05224FEACE1ECCF8F9
:1015F00000000A60032C04F1010203D85CB2002C45
:101600001446E9D41046B0BD80B54FF0FF3200BF9C
:10161000CB1701EB536C2CF07F03A1EB030E7F295A
:10162000C8BF4EF0800E7F294FEAEC1100EB020399
:1016300002F1010283F801E0EADC501C80BD0000E9
:1016400070B505680C4625B12846FEF7CDFD064667
:1016500001E0D0E901652046FEF7C6FD86421CBFC9
:10166000002070BD284621463246FEF7DBFDB0FA69
:1016700080F0400970BD00007F28BEBF02210844F1
:10168000704743F6FF718842BEBF0321084470478C
:101690004FF6FE72C0F21F0205219042B8BF04212E
:1016A000084470472DE9F0418AB00446006A78B3D7
:1016B00008AF38461546884600F0F6FC61683846A3
:1016C00000F0EAFC2B78581E012808D820684FF655
:1016D000FF72411C904208BF01212160A9806A78F5
:1016E000A1682069D5E9026CAF884FF0000E8DE843
:1016F00084410022CDE904E6CDF818C000F060F97D
:10170000012805DB014608AA204604F065FC20B14B
:101710004FF0FF300AB0BDE8F0812878022815D0DC
:10172000012827D108A800F0C3FC0028F0D108AD9B
:101730002046294601F0D8FF04281FD0284600F093
:10174000B7FC00284FF0FF30F2D025E008A800F0E9
:10175000AFFC0028DCD108AD2046294601F0C4FFCB
:1017600007280BD0284600F0A3FC00284FF0FF30DC
:10177000F2D011E000200AB0BDE8F081E7686369AB
:1017800007A80DF11D010DF11E020097FFF74AFE9B
:10179000013818BF4FF0FF300AB0BDE8F0810000FB
:1017A00070B582B00429019003DA6FF0010002B035
:1017B00070BD911F04461001B1FA81F163F3C300BB
:1017C000490940EA410001AE069DC1B2304606F02B
:1017D0009BF901980221FFF717FF01990844019036
:1017E0003046294606F096F90198001B02B070BDFC
:1017F000F0B581B004460090104615460E4600F044
:101800008DF80746FFF738FFB04203DD6FF00100A7
:1018100001B0F0BD6E463046102106F075F9009813
:101820003946FFF7F1FE00992F7A0844009037A05F
:1018300038A1042F08BF0146304606F049F9042FAD
:1018400018BF03273046394606F05EF9A87EE97EC8
:10185000022202EA4000002918BF012140EA810764
:1018600009D095F83C0095F83D10202202EA40107E
:1018700061F3C4000744286C10B167F07F0704E0EF
:10188000A86C002818BF67F07F07E86C10B147F01C
:10189000400704E0686D002818BF47F040076E4617
:1018A000F9B2304606F030F9298B304606F032F9AD
:1018B00005F10C030ECB304606F03AF9E87E60B134
:1018C00005F124030ECB6E46304606F031F905F1E2
:1018D00030030ECB304606F02BF9B7F1FF3F0BDD9E
:1018E000780605D505F14C030ECB684606F020F9C5
:1018F0000098001B01B0F0BD05F140030ECB684617
:1019000006F016F97806EDD4F2E700BF4D515454B5
:10191000000000004D5149736470000070B504462A
:10192000057AC068D4E904120226042D08BF0C26EB
:1019300000F086F9032D08BF0E26E17E351871B13F
:1019400004F1240207CA00F07BF9D4E90C31A26B40
:101950000646184600F074F9A9190844051D206CC4
:1019600008B9A06C30B104F1400207CA00F068F970
:101970002844851CE06C08B9606D30B104F14C025C
:1019800007CA00F05DF92844851C284670BD000098
:1019900010B582B00229019003DA6FF0010002B0A5
:1019A00010BD044601A8C02106F0AEF80198002140
:1019B000FFF72AFE019908440190001B02B010BDF8
:1019C0002DE9F04F81B0DDE90C9B15460E9A884653
:1019D0000446109F0090484659461E4600F030F9D4
:1019E000384400F1020A002EC8BF00F1040A504634
:1019F000FFF742FE404504DD6FF0010001B0BDE895
:101A0000F08F0A9806F0030100F0010065F3C300AF
:101A100040EA41006D460F9F00F13001284606F074
:101A200073F800985146FFF7EFFD00990E9B0844AC
:101A30000090284649465A4606F07AF8012E03DB04
:101A40000B99684606F066F8109D009839462A46BC
:101A5000FEF790FB009828440090001B01B0BDE801
:101A6000F08F00002DE9F04F81B08146DDE90AA03A
:101A7000984693460F46BAF1010FCDF800900FDB60
:101A8000A0F10C060225544656F80C0FD6E90112B7
:101A900000F0D6F82844013C00F10305F4D100E041
:101AA00002252846FFF7E8FDB84204DD6FF001008B
:101AB00001B0BDE8F08F822040EACB006E4600F016
:101AC0008A01304606F020F800982946FFF79CFD71
:101AD0000099084400903046414606F01BF8BAF1E0
:101AE000010F14DB0C986D46461E0B98A0F10C07F5
:101AF00057F80C1F2846D7E9012306F019F816F805
:101B0000011F284606F000F8BAF1010AF0D100984A
:101B1000A0EB090001B0BDE8F08F00002DE9F04313
:101B20008DB004460020CDE90900206A08918DF8A7
:101B30001F2050B30BAD284688461F4600F0B4FA6C
:101B40006168284600F0A8FA22684FF6FF75531C1A
:101B5000A1682069AA4208BF012308AA01262360C0
:101B60000DF11F05CDE900629BB200220295FFF73F
:101B700079FF012809DB01460BAA204604F02CFA64
:101B800018B90BA800F094FA20B14FF0FF300DB057
:101B9000BDE8F0830BAD00BF2046294601F0A4FD4F
:101BA000092809D0284600F083FA00284FF0FF30BA
:101BB000F2D00DB0BDE8F0834FF0FF30E668656904
:101BC0004FF0000905900DF1120006AA05AB0121A6
:101BD000CDF81890CDE90056FFF7AEFC0146059808
:101BE000012918BF4846802803D180200DB0BDE8E8
:101BF000F0830021464600BF04EBC102536A1BB1CB
:101C000001310529F8D1D4E70020C2E909670DB0F8
:101C1000BDE8F08370B582B06E46054630460C468E
:101C200000F042FA3046214600F036FA28463146A6
:101C300001F05AFD411C18BF002002B070BD000029
:101C4000002804BF08467047FEF7CEBAFEE7000042
:101C500040F65C10C2F2000001680131016070477B
:101C60007047000046F6616246F6956346F6596C89
:101C7000C0F60002C0F60003C0F6000C80E80E10AB
:101C80007047000070470000F0B581B040F6701555
:101C9000C2F200052A780F46532A064632D028465B
:101CA0003021FEF780FA012048F2497140F6A01277
:101CB00028610020C0F60001C2F200026861A9613B
:101CC000EA614FF400722A62A8626862E8622963DE
:101CD00040F6A011C2F2000148F230726963A863B5
:101CE0002864E8636864681E0F21C0F60002BFF331
:101CF0005F8F00BF535C01394C1C00F8013FF9D1E4
:101D0000BFF35F8F06EB4600EFF311824FF0200127
:101D100081F3118805EBC003D3E90810DE6A451C86
:101D2000691A18BF2946022E03F1180303D100BF18
:101D30001E69B142FCD01E69B14201D1002005E00C
:101D40005E6837540120BFF35F8FD96082F311883A
:101D500001B0F0BD7047000001F024BE82B04EF625
:101D60008851CEF200010A6841F2040C42F470027C
:101D7000C4F2020C0A605CF8041C41F001014CF84A
:101D8000041C00BF5CF8041C8907FBD5DCF80010BC
:101D900001F00C0108296FD100210191019A4F2A0D
:101DA00006D800BF019A01320192019A502AF9D354
:101DB000DCF800200092009A22F0F0020092009AD3
:101DC00042F080020092009ACCF800200191019923
:101DD0004F2905D801990131019101995029F9D371
:101DE000DCF800100091009921F0F00100910099B9
:101DF00041F0900100910099CCF800100021019170
:101E0000019A4F2A06D800BF019A01320192019A25
:101E1000502AF9D3DCF800200092009A22F0F00258
:101E20000092009A42F0A0020092009ACCF80020A2
:101E3000019101994F2905D8019901310191019929
:101E40005029F9D3DCF800100091009921F0F0013D
:101E50000091009941F0B00100910099CCF8001078
:101E60000021019101994F2906D800BF0199013144
:101E7000019101995029F9D3DCF8001021F00301F8
:101E8000CCF8001000210191019A12097C2A06D891
:101E9000019A01320192019AB2F5FA6FF8D35CF817
:101EA000042C4FF6FF73CFF6F6631A404CF8042C5F
:101EB0004FF41F02CCF804205CF8042C22F480229A
:101EC0004CF8042CCCF80010CCF828105CF8042C4A
:101ED00042F480324CF8042C4FF6FE725CF8040C8D
:101EE000013A41F10003800301D4002BF6D15CF8E4
:101EF000040C800301D400BFFEE7DCF8180047F2B1
:101F0000000140F08050C4F20001CCF818000868CD
:101F10004FF6FF7240F440400860DCF80000CBF25E
:101F2000C372CCF80000DCF80000CCF80000DCF84C
:101F3000000040F48060CCF80000DCF8000020F4E1
:101F40004030CCF80000DCF8000040F44030CCF821
:101F50000000DCF800001040CCF80000DCF80000C5
:101F600040F0006040F45010CCF800005CF8040C25
:101F700040F080704CF8040C5CF8040C8001FBD538
:101F8000086840F4803008604868C003FCD50868E1
:101F900040F40030086000BF48688003FCD5DCF8DE
:101FA00000000190019820F003000190019840F09A
:101FB000020001900198CCF8000000BFDCF800009E
:101FC0000007FBD502B0704710B540F20044C4F2E0
:101FD00000042046012104F037FE012817D12046D5
:101FE000012104F02DFE40F66414C2F200042068C2
:101FF00001302060FFF72CFE2068B0F57A7F38BFF3
:1020000010BDFFF7CBF8FFF77DF90020206010BD71
:1020100010B541F20044C4F200042046012104F04E
:1020200013FE002808BF10BD2046012104F008FE61
:1020300042F6E45EC2F2000EDEF8001042F6043210
:102040000131CEF800100021C2F200024FF0020C64
:1020500004E000BF2831B1F5C87F10D0545C012CDA
:10206000F8D15318DEF800405868DB68201A98420F
:10207000F0D3505C022818BF02F801C0EAE710BD97
:1020800040F65C12C2F2000212684FF47A7301FB50
:10209000032141607047000040F65C12C2F200026A
:1020A0001268114441607047002141607047000090
:1020B00040F65C11C2F2000140680968401AC00F86
:1020C0007047000040F65C11C2F2000140680968E8
:1020D000401A20EAE0707047F0B581B044F6000481
:1020E00040F20635C4F20004C0F20605A5F1021163
:1020F000204604F071FE00283ED000262046C4F29F
:10210000020604F0E3FD3046022101F027FEC0F58F
:10211000807042F6C24781B2C2F200071FA0B1F53B
:10212000807F28BF4FF48071A7F8001105F034FDBF
:10213000B7F8000150B142F6C450C2F20000016885
:1021400021B142F6C240C2F2000088470020A7F841
:1021500000013046022101F0EBFC304602214FF431
:10216000807201F0EBFD304602213A4601F0A6FDF7
:102170003046022101F0EEFC2046294604F02CFEF8
:1021800048B12046294604F01DFE41F21440C4F235
:1021900001000121016001B0F0BD00BF7278325F23
:1021A0006275662E6C656E6774683A25640A000075
:1021B000002814BF00297047F0B581B042F6E856F8
:1021C000C2F2000642F6EC573060C2F2000741F25C
:1021D000104000243980C4F201000121C4F202043D
:1021E0000160204601F0A4FC44F60005C4F200059D
:1021F0002A1D2046012101F083FD3268204601217D
:1022000001F05CFD3A882046012101F097FD284647
:10221000802104F0A7FD2046012101B0BDE8F04077
:1022200001F098BCFEE70000B0B582B040F2400576
:10223000C2F20005E9680446884768698047686A11
:1022400070B1AA6A62B1200C8DF80500200A8DF8E1
:1022500006000DF1050003218DF8074090470AE0C4
:10226000296AC4F307408847296AC4F307208847CE
:10227000296AE0B28847E8698047A9690446884727
:1022800028698047204602B0B0BD0000F0B581B09B
:1022900040F24007C2F200070D46F96814460646B0
:1022A000884778698047786A90B1BA6A82B1300C01
:1022B0008DF80100300A8DF802000DF101000321B4
:1022C0008DF8036090477A6A28462146904713E0CC
:1022D000396AC6F307408847396AC6F3072088473A
:1022E000396AF0B288473CB1013D00BFF8698047C8
:1022F000013C05F8010FF9D1B8698047386980477A
:1023000001B0F0BDF0B581B040F24006C2F2000667
:102310000C46F1680546884770698047B26A45F007
:1023200004076AB1280C8DF80000280A8DF8010016
:10233000684604218DF802708DF8034090470DE047
:10234000316AC5F307408847316AC5F307208847DB
:10235000316AF8B28847316A20468847B0698047B9
:102360003069804701B0F0BD2DE9F04182B040F204
:102370004007C2F200078846F968144606468847B7
:1023800078698047BA6A46F0040582B1300C8DF84E
:102390000500300A8DF806000DF1050003218DF8C7
:1023A00007509047BA6A40462146904714E0396A80
:1023B000C6F307408847396AC6F307208847396A59
:1023C000E8B2884744B1A8F1010500BF396A15F8A1
:1023D000010F8847013CF9D1B869804738698047C7
:1023E00002B0BDE8F081000041F2BC40C2F2000042
:1023F0000021017042F6BD40C2F20000017042F6B9
:10240000BE40C2F20000017042F6BC40C2F20000C1
:10241000017070472DE9F04F81B042F6BD48C2F21D
:10242000000898F80000A8B342F6BE4941F2344AC9
:1024300041F2BC4741F2144BC2F20009C2F2000A59
:10244000C2F20007C2F2000B03E000BF98F80000E0
:1024500000B399F8001001380AEBC1021AF83140B4
:10246000013101F00F0189F8001039785568002911
:1024700088F80000EAD0002604E000BF3878013672
:102480008642E3D25BF82620002AF7D02046294670
:102490009047F3E701B0BDE8F08F0000012888BF46
:1024A0007047B0B542F6BD4EC2F2000E9EF8003045
:1024B0000F2B16D842F6BC4CC2F2000C9CF8002040
:1024C00041F23444C2F2000404F83200501C00F01F
:1024D0000F0004EBC2058CF80000581C69608EF8F0
:1024E0000000BDE8B040704741F2BC42C2F20002B9
:1024F0001178072988BF70474B1C137041F21442B2
:10250000C2F2000242F82100704700002DE9F04FAE
:1025100089B08146002503A890468A46CDF81F5011
:102520000795CDE90555CDE9035505F06BF840F267
:10253000FC0BC2F2000B0BF18006504659463246A6
:1025400001F062FE68B19BF88010002967D09BF80B
:1025500081209BF882309BF8837033A0009705F0B0
:102560001BFB42F69447C2F2000738464946FFF784
:1025700079FBBBF8842038463146FEF727FC40F64D
:10258000A4304FF40066C2F2000039464FF47A726C
:102590005346CDE900680296FEF7C0FE9BF805079A
:1025A00040F6081740F26C06C2F20007C2F20006BD
:1025B00087F821000BF20660F5763861FDF714FE0E
:1025C000F8600BF20670F861FDF70EFE4FF0030C99
:1025D000B86187F82050C7F804C03A68D7E90235D7
:1025E000D7E90414D7E9077EC6E9072CC6E90D0729
:1025F000042030720BF18800F0600BF58470C6E99E
:102600000FE00BF5C470F0640A2030830120C6E9A6
:102610000935C6E90B14B07609B0BDE8F08F11A0FA
:1026200005F0EEFFFEE700BF557365204465666167
:10263000756C742053657276657220496E7465728C
:102640006E65742050726F746F636F6C20416464A8
:10265000726573733A25642E25642E25642E2564D5
:102660000D0A00004E6F2064656661756C742073FE
:10267000657276657220616464726573732C20756F
:102680006E61626C6520746F20636F6E6E6563743B
:1026900020746F20746865207365727665720D0012
:1026A000002818BF7047F0B5A1B001AD0C46284610
:1026B0008021FDF778FD204600F050FD002841D034
:1026C0002BA1044600F046FD07462AA1204600F053
:1026D00041FD2AA100F03EFD41692EA02AA2002959
:1026E00008BF104605F08CFF42F6AC46C2F2000669
:1026F00000203A69307029A1284605F05DFA31A022
:10270000294605F049FA2846B560FDF76DFDF060F1
:1027100040F2FC00C2F2000000F2055540F6A43081
:10272000C2F2000029463246FEF7BCFF88B140F6EF
:102730000040C2F200000321017025A02EA105F087
:102740002BFA0EE048F64100C0F6000005F058FFF5
:102750000AE0B26848F29770C0F60000294605F01A
:102760001BFA204600F0CAFC21B0BDE8F0407047DB
:1027700069640000706172616D7300004C69676884
:1027800074537769746368004C4544204F46460D86
:10279000000000004C4544204F4E0D007B22696430
:1027A000223A222573222C22636F6465223A32304A
:1027B000302C226D7367223A2273756363657373DD
:1027C000227D00007265706C793A25730D0A000055
:1027D0005B232573235D20224D5154545075626C48
:1027E000697368206572726F72210A222045525205
:1027F0004F52210A000000006170705F70617273B7
:10280000655F6D73670000002DE9F04F8BB040F2FB
:102810000C00C2F20000017F90F81BB00A91417FCA
:1028200090F827400991817F42F2C0680891C17FEA
:102830008146079190F8201000250691417DC2F253
:1028400000080591817D0491C17D0391817E0291F3
:102850000AE000BF01358CF800400134202D08F15A
:102860001F0889F8274045D042F2C061C5EB4510EA
:10287000C2F2000101EB000C4FF0000E15E000BFAA
:1028800009EB0E000EEB8E0A47784179427A437BC2
:10289000407C08EB0A067770B170F270337170718A
:1028A0000EF1010EBEF1060FD4D0BEF1030FE7D931
:1028B000BEF1040F0ED105988CF819B08CF81500F4
:1028C00004988CF8160003988CF8170002988CF87E
:1028D0001800E5E70A988CF81A0009988CF81B0094
:1028E00008988CF81C0007988CF81D0006988CF846
:1028F0001E00D5E742F2C060C2F20000451F062666
:102900000FF23808A979EA792B7A6F7AAC7A4046C7
:10291000CDE9007405F040F90A2005F06BFE013E98
:1029200005F10505EED142F2C060C2F20000017867
:1029300009A00BB0BDE8F04F05F02EB92530325894
:10294000202530325820253032582025303258206A
:1029500025303258207C0000616464723A253032A0
:10296000580A00002DE9F04F81B001281CBF01B0CA
:10297000BDE8F08F0878AA2806D1B1F80001B0F5BB
:10298000807F0BD9A1A000E085A048F27E71C0F63F
:10299000000101B0BDE8F04F05F0FEB8487838B14D
:1029A0008B1C002213F8017F01383A44FAD100E071
:1029B000002250424A7AC0B2824240F09C8042F6E5
:1029C000CC23C878C2F200034A79187042F6CD20B1
:1029D000C2F200008979027042F6CE20C2F20000F5
:1029E000002680A400270170FDB2284600F022F9DD
:1029F000B0B142F6CC22C2F20002017812789142C4
:102A000010D10646204605F0C7F842F6CE20C2F2A5
:102A10000000007800EB80003044461C022002E0F9
:102A2000042000E0002040F00400042803D11F2D02
:102A300007F10107D8D3002E00F09F80002500BFCA
:102A4000ECB2204600F0F6F81F2C05F10105F7D393
:102A500030780E2851D100240FF2A8184FF00B093E
:102A600004E000BF009801341F2846D2E0B2009075
:102A700000F0E0F805464FF0000A16E04FEAD10BEF
:102A800001F0070705F0BCFD42F6CD20C2F20000C0
:102A900042F6A0210078C2F200011BFB0911C855C3
:102AA0000AF1010ABAF1060FDCD00AEB8A0270784B
:102AB0002A4492783378B0F1FF0118BF0121821ABD
:102AC00018BF01220E2B08BF11EA0201E8D12978B4
:102AD00000284046D2D142F6CC20C2F20000007855
:102AE0008842DDD142F6CE20C2F200000078824555
:102AF00045A0C3D0D4E732A047E742F6D024C2F2C3
:102B0000000420463321FDF74EFB42F6A025C2F219
:102B1000000505F11C030FCB4AF6FF2C95E80007D2
:102B2000D5E90376D5E905BEC0F22C1C20626162AE
:102B3000A262691E00202C22E362C4E900C8C4E935
:102B4000029AC4E90476C4E906BE00BF11F8013F49
:102B5000013A1844FAD1404240F60D2344F60002EF
:102B600084F83000C4F2000220463321A4F831304A
:102B700001B0BDE8F04F00F0A5BA42F6CC20C2F299
:102B80000000027848F2527048F27E71C0F60000F0
:102B9000C0F6000101B0BDE8F04F04F0FDBF00BF7A
:102BA0005B232573235D202270616E656C20667245
:102BB000616D6522204552524F52210A00000000EB
:102BC0005B232573235D202270616E656C20667225
:102BD000616D652063726322204552524F52210A73
:102BE000000000006366672D3E616464723A253020
:102BF00032582070616E656C5F616464723A253092
:102C000032580A0032000000310000005B232573B7
:102C1000235D202270616E656C206672616D652097
:102C2000746F6F206C6F6E6722204552524F522195
:102C30000A00000042F2C061C0EB4010C2F2000185
:102C40000844704780B542F66510C0F60000FFF7F3
:102C50004BFCBDE88040FFF7D7BD000001460120D6
:102C6000FFF71CBC80B544F60000C4F200004FF42E
:102C7000165100F06DF942F65D40C0F60000BDE867
:102C8000804000F05FB9000042F604310020C2F23B
:102C9000000100228B1888542832B2F5C87F1876BC
:102CA000F8D110B584B040F2057002F0DBFE41F2BD
:102CB0000044C4F20004204603F03CFE772000905C
:102CC0000020019040F2E73002906946204603F070
:102CD00057FF2046012103F0B3FF2046012103F0F6
:102CE000ABFF204603F046FF37200021012201F010
:102CF0009DFF02A005F084FC04B010BD6170705F00
:102D000074696D65725F696E69740000F0B581B0B9
:102D100042F6043542F6E4560024C2F20005C2F23F
:102D2000000607E030687860012028552834B4F5A3
:102D3000C87F0CD0285D0228F8D12F19396909B154
:102D400078698847387A0128ECD00020EDE701B097
:102D5000F0BD00002DE9F0418CB000284FF00104D7
:102D600018BF002903D120460CB0BDE8F081DDF882
:102D70004880B8F1000F0FD0054640461C460F466C
:102D80001646FDF731FA23460446324639462846B0
:102D90000F2C01D90424E6E742F60436C2F20006FD
:102DA0000024354615F8287B27B101340A2CF9D1C7
:102DB0004FF0FF34002C4DD401278DF82C7042F6D3
:102DC000E457C2F200073F68B8F1000F0997CDE958
:102DD00004314FF000018DF820200690CDE902115A
:102DE000CDE900119DF82C0004EB840206F83200B6
:102DF0009DF82B0006EBC205E870BDF82900A5F888
:102E00000100099868609DF8200028729DF81F0055
:102E1000E872BDF81D00A5F809000698E86005985D
:102E2000286104986861009A284640F8182F039A90
:102E30006A62029A2A62019AEA610AD098F800202E
:102E40003AB141460F22FDF7B9F9002085F8270075
:102E500000E00170022000EA947484E780B588B035
:102E600004F08CFB04F02CFA04F05EFB04F048FC48
:102E700040F6144040F2C401C2F20000C2F2000168
:102E800001F06CFE0DF1090004F0BCFB41F6C061DD
:102E900041F2BD42C2F20001C2F200020020FFF77F
:102EA00035FB42F2A160C0F60000FFF71DFB48F6BB
:102EB000730C46F6F911C0F6000CC0F600014FF491
:102EC0007A7001220023CDF800C0FFF743FF08B05D
:102ED00080BD0000B0B540F2046002F0C3FD40F2D6
:102EE000127002F0BFFD40F2056002F0BBFD4FF42E
:102EF000C06002F0B7FD41F20004C4F201042046B4
:102F0000182103224FF4806301F058FC204604216D
:102F100003224FF4006301F051FC1020C0F21400B2
:102F20000121012501F0A6FC04F580601021032297
:102F3000012301F043FC41F21440C4F2010005609A
:102F4000B0BD000042F6C451C2F2000108607047F3
:102F50002DE9F04788B044F60004C4F20004A04212
:102F600040F0AC800D46FFF7B5FF4FF4A06002F0D3
:102F700079FD40F2015002F075FD204603F0AAFEF3
:102F80002046294603F06CFE204600214FF0000940
:102F900003F05AFF2046002103F044FF20460021A1
:102FA00003F02EFF2046002103F0F6FE204600210C
:102FB00003F0E8FE2046082103F03CFF20460421F0
:102FC00003F026FF2046402103F0C2FE204603F016
:102FD000D3FE20464FF4417103F0E8FE204640F254
:102FE000063103F0E3FE2720002101224FF0010803
:102FF00001F01CFE04F5DC352846022100F0CEFD70
:1030000001AE304600F08CFE42F6C240C2F2000033
:10301000CDE903094FF4807704344FF4005A284671
:10302000022132468DF81E9005970194ADF81C7070
:10303000CDF80890CDF818A000F0CEFD284602216A
:1030400000F09AFD2846022100F048FE28460221A1
:1030500000F080FD0D200021002201F0E7FD284650
:10306000012100F09BFD304600F05AFE2846012168
:1030700032468DF81E80CDE90399CDF81490019465
:10308000ADF81C70CDF80890CDF818A000F0A4FDA4
:103090002846012100F070FD2846012100F01EFEA7
:1030A0002846012100F056FD28460121022200F0A9
:1030B000CDFD0C200021012201F0B8FD08B0BDE8D3
:1030C000F0870000FFF774B8B0B10368A3B1D0E98E
:1030D00001C2624528BF70478268624508D200BFBE
:1030E000995C202904D8013294458260F8D1624667
:1030F000624504BF511E816070470000002808BF70
:10310000704770B540F2F0060446C2F2000603E0D4
:10311000716828468847CCB1607B25462468C00783
:1031200004D1A868002818BFFFF7E8FF687BC00734
:1031300003D1286908B171688847687B8007E7D4A4
:10314000286A0028E4D071688847E1E7BDE870404C
:1031500070470000002201F0C3BA0000002804BF3D
:103160000020704710B50446FDF73EF8411C20468C
:1031700000220023BDE81040AFF300802DE9F04F9E
:1031800087B0054641F2B44941F2B84A14460020DE
:10319000C2F20009C2F2000A002D0690CDE9040037
:1031A000CDE90200CDE90000C9F80000CAF800002E
:1031B00018BF00291CD1002818BFFFF79FFF002D62
:1031C0004FF0000000F08080DDE901124B1E28BFA7
:1031D00018468A4238BF1046002C1CBF29182160AF
:1031E000C9F80050CAF80000002007B0BDE8F08F11
:1031F000029040F2F000C2F20000CDE90051D0E9A7
:1032000000128068984606902820CDE9041288476D
:1032100058B328218346FCF7C6FF0098002178B1F7
:10322000029A002A5A460CD1019905291FD329A1D7
:1032300003220327FCF7F6FF6946002808BF029720
:103240005A46B9B10F68AFB1D1E90130984212D2F4
:103250003E5C202E04D8013083428860F8D11846A5
:10326000984204BF0138886005E00020A3E7694662
:103270000029E7D10021104602F086F938B3B8F1F1
:10328000000F58461BD0009981B1DDE901329A4206
:103290000CD200BF8F5C202F04D8013293420292DF
:1032A000F8D11A469A4204BF013A0292DDE901328E
:1032B0009A42BFF480AF895C00297FF47CAF1CB1D7
:1032C0000099029A1144216007B0BDE8F08F58467A
:1032D00071E700BFEFBBBF0070B540F60844C2F213
:1032E000000494F90000012822DC40F2EC0540F6CD
:1032F0000C46C2F20005C2F2000628683168884216
:1033000024BF012070BD40F60940C2F200000078E1
:10331000042818BF02281AD103F016F800203060E4
:10332000306821780A30286001310120217070BD99
:1033300040F60945C2F20005287801280CD004287F
:1033400001D002280BD102F0EBFE012005E001289C
:10335000E4D102F0E5FEE1E70020287000E0012062
:1033600040F60C42C2F200020021116040F2EC0271
:10337000C2F200020A231360217070BD082882BFC8
:10338000FF2040B2704770B5044646014FF4847088
:1033900000EB441528461021FEF7B4FF2846FEF73F
:1033A00043FF0028FAD146F402701F21FEF7AAFF5E
:1033B00042F6C85142F6CA53C2F20001C2F20003FB
:1033C00001200A881D88A040824325EA0000188059
:1033D00042F6D4500A80C2F20000002120F81410F6
:1033E00042F6CC50C2F20000015506F5427400BF0F
:1033F0002046FEF719FF0028FAD10120BDE87040F1
:1034000040B27047082882BFFF2040B270472DE9C4
:10341000F0414601804606F108000F461546FEF7CA
:1034200003FF00F00F00012836D106F54274204654
:10343000FEF7FAFE132831D1386800BA013810F1CE
:10344000030F2DD875B340F60840394630430422A7
:10345000FEF78AFF41F208003043290AFEF752FFC7
:1034600041F208103044E9B2FEF74CFF06F58475CE
:1034700028460421FEF746FF2846FEF7D5FE002821
:10348000FAD142F6C850C2F20000008820FA08F0D3
:10349000C0070CD0002006E0FB2004E0FD2002E085
:1034A000F42000E0F520BDE8F04140B2704746F45A
:1034B000027500BF2046FEF7B7FE17280CD028463D
:1034C000FEF7B2FE000709D42046FEF7ADFE002845
:1034D0004FF0FC00EED1E6E70120E4E728460821A2
:1034E000FEF710FFF320DEE770B50F2800F2F7803B
:1034F0000C46DFE810F01000860097002200B100B3
:10350000C300A600E5007300D0001E003F00F100DC
:10351000BE0013008F0004F0EDF9DDE04FF43850E9
:10352000FEF782FE00F038003038B0FA80F0400933
:1035300076E0204604F058FACEE02088050A00F034
:10354000F0014FF4A850FEF7DDFE00264FF40274A0
:1035500007E000BF2034B4F5427F06F1010600F019
:10356000BB8025FA06F0C007F4D020461F21FEF7E5
:10357000C9FEEFE74FF43850FEF756FEC0F3801156
:1035800000F038002170A0F13801A0F12002B1FA5A
:1035900081F1B2FA82F2490952091143A0F11002F5
:1035A000102A617000F29E80012140F2011301FA9D
:1035B00002F2C0F201031A4208BF0021A0F1080282
:1035C000182AA17007D8012000FA02F10122C0F2E6
:1035D0000112114200D10020E0707DE040F2400075
:1035E000C2F2000081782170C17861700179A17008
:1035F0004179E17081792171C07960710020A071F9
:103600006AE02146002C18BF08312046BDE8704012
:1036100004F034B84FF43850FEF706FE00F0010015
:10362000207059E04FF4A850FEF7FEFD05464FF418
:10363000B850FEF7F9FD05F0F00141EA00202080C6
:103640004AE061784FF49850FEF75CFE21784FF421
:10365000A050FEF757FE3FE02088040AC1B24FF4A5
:10366000B050FEF74FFE4FF4C0502146FEF74AFE21
:1036700032E02078BDE8704004F0EEB94FF4B0506D
:10368000FEF7D2FD05464FF4C050FEF7CDFD45EAEA
:103690000020208020E04FF43850FEF7C5FD00F0F8
:1036A0007F014FF43850FEF72DFE4FF43850FEF7EF
:1036B000BBFD40F080014FF43850FEF723FE0BE0D5
:1036C0004FF49850FEF7B0FD05464FF4A050FEF7BA
:1036D000ABFD40EA05202080002040B270BDFF20F5
:1036E00040B270BD002169E72DE9F04F8FB0056D44
:1036F000814646696C6808468846FEF7E3FC034647
:10370000284631460122A047012848D14046CDF83D
:103710001880FEF7D7FC804601244FF0000B0DF116
:10372000200A0025032D01D9012611E0D9F8500007
:1037300051464768012243460126B847012807D170
:103740009DF82000002600F07F0004FB00BBE40190
:1037500026B99DF9200001350028E3D4D9F81400DA
:1037600059460130FDF750FFDDF81880BBF1010F1D
:1037700010DBD9F81410D9F8505008446C68471C75
:103780004046FEF79FFC0346284639465A46A04766
:10379000584504D1D9F814000078000901E04FF031
:1037A000FF3086B20D284FF0000752D0052E2AD0E8
:1037B000032E7BD108A9D9F81440881C4A1C0B1D84
:1037C00001F10807D9F80CC00C310CADCDE9021499
:1037D00007A9CDE90057CDF810C0FDF769FE012813
:1037E00042D107980CA98DF8200008AA484600F09D
:1037F000E5F89DF82000002851D0012837D0022894
:1038000044D1052234E0D9F80C70D9F8143007A857
:103810000CA908AA0097FDF705FE01281FD1D9F8C9
:103820000810D9F81000BDF8207006220023009778
:10383000FDF7B6FF012812DB01464846424602F07A
:10384000CBFB0746002818BF4FF0FF37781C2DD15F
:103850002FE01CA004F0D4FE89F81C7026E04FF085
:10386000FF37781C22D124E0002700201DE004222D
:10387000D9F80810D9F81000BDF82470002300977B
:10388000FDF78EFF0146012903DA0BE00021012933
:1038900008DB4846424602F09FFB013002D001207F
:1038A000002702E000204FF0FF3710B1484601F03A
:1038B00021F8002F18BF4FF0FF3630460FB0BDE89B
:1038C000F08F00BF50494E47524553500000000052
:1038D00080B540F65011C2F200014FF4706004222E
:1038E000FEF742FD40F65411C2F200014FF4A06011
:1038F0000422FEF739FD40F64C11C2F200014FF4EC
:1039000080700422BDE88040FEF72EBD80B5002007
:103910008021FEF7F7FC0020FEF786FC40F6301110
:10392000C2F200014FF410600622BDE88040FEF7AD
:103930001BBD000080B500208021FEF7E3FC0020C5
:10394000FEF772FC40F65011C2F200014FF47060B5
:103950000422FEF709FD40F65411C2F200014FF4B3
:10396000A0600422FEF700FD40F64C11C2F20001F7
:103970004FF480700422FEF7F7FC40F63011C2F2DB
:1039800000014FF410600622BDE88040FEF7ECBC59
:1039900040F60441C2F20001086000BF0868002838
:1039A000FCD1704740F60440C2F2000001680029D3
:1039B00008BF704701680139016070472DE9F04F79
:1039C00085B0884600F1240900274FF0FF3B0292A2
:1039D000019006E0834208BF002A0CD00137052F72
:1039E00047D059F837100029F8D0404609EBC70AEC
:1039F000FDF726FE60B1DAF804100029EED0029837
:103A0000CDF81080039003A888474FF0000BE5E73E
:103A1000DAF80010D8E901630A789819002AD9D099
:103A2000012ED7DB441E00BF1E782F2A01D02F2E77
:103A3000D0D0232A254612D02B2A06D0B242C9D193
:103A4000232A25460BD02B2A11D101331A46834253
:103A500004D2134613F8016B2F2EF7D1551E11F81F
:103A6000012F6B1C002AB5D08342DDD3B2E71D467F
:103A7000F5E71BF1010008D10198C16C49B102982A
:103A8000CDF81080039003A88847002005B0BDE85A
:103A9000F08F4FF0FF3005B0BDE8F08FFFF7D2B8E0
:103AA000082882BFFF2040B2704770B54601044627
:103AB00006F10800FEF7B8FB00F00F0001281DD149
:103AC00006F5847528460821FEF71CFC2846FEF7FB
:103AD000ABFB0028FAD142F6CA5142F6C852C2F2F4
:103AE0000001C2F20002012012880B88A04010429F
:103AF00023EA0000088006D0002000E0FB20BDE89B
:103B0000704040B2704706F5427546F4027600BF39
:103B10002846FEF789FB48B13046FEF785FB0007D3
:103B2000F6D52046FFF72AFCF320E8E70120E6E778
:103B300040F20042C4F20202904202D1052900D3B1
:103B4000FEE701EB810100EB8100816821F00101BA
:103B50008160704740F20042C4F20202904202D1FA
:103B6000052900D3FEE701EB810100EB81008168AC
:103B700041F001018160704740F20042C4F202024C
:103B8000904202D1052900D3FEE701EB810100EB51
:103B90008100816821F020018160704740F200427D
:103BA000C4F20202904202D1052900D3FEE701EBE4
:103BB000810200EB82029368890023F00103936085
:103BC00000239360D360136153610F22436802FAAC
:103BD00001F119434160704740F20043C4F202030F
:103BE000984202D1052900D3FEE780B5136801EBA6
:103BF000810100EB8100036191684161118AC1601C
:103C00008168536821F47C5CD168D2F814E043EAFF
:103C10000C03194341EA0E018160117E836801297A
:103C200023F0400308BF40338360517E836801293D
:103C300023F0800308BF80338360917E826800296F
:103C400022F0100218BF1032826080BD40F20043A3
:103C5000C4F20203984202D1052900D3FEE701EB2A
:103C6000810100EB81008168114381607047000091
:103C70008900436802FA01F119434160704700006E
:103C8000082A19D80123934013F48A7F14D08B009B
:103C900001EB8101D0F800C000EB8100806802FADE
:103CA00003F31CEA030100EA020018BF0121002807
:103CB00018BF012008407047FEE7000040F20043B3
:103CC000C4F20203984202D1052900D3FEE701EBBA
:103CD000810100EB810042617047000040F2004228
:103CE000C4F20202904202D1052900D3FEE701EBA3
:103CF000810100EB8100816821F48041816070477F
:103D000040F20043C4F20203984202D1052900D3D5
:103D1000FEE701EB810100EB8100026170470000CA
:103D200050B10021C0F81710C0E90011C0E902111C
:103D3000C0E90411704700BFFEE7000040F20043F5
:103D4000C4F20203984202D1052900D3FEE701EB39
:103D5000810192B200EB8100C260704740F20042E4
:103D6000C4F20202904202D1052900D3FEE701EB22
:103D7000810100EB8100C068704700002DE9F04729
:103D8000B0B000254FF0C00E6B464FF02E080C4629
:103D90004FF0000A4FF00009AC4600BF14F8017B59
:103DA000BAF1000F07F0C00608BF0CF1010CC02EDD
:103DB0000DD12478BAF1000F67F30D24044408BF35
:103DC0000CF1010514F8017B4FF0010AAC46FFB17C
:103DD000FD430EEB05060FFA86FEBEF1000F23D45D
:103DE000013C01333D4600BF14F8016F013D03F86B
:103DF000016C2E0403F10103F6D1BAF1000F08BFE4
:103E0000BC4403F8018C09F1010901346546C5E79A
:103E1000B9F1000F04BF2E2703F8017B00271F70A4
:103E20001CF1010306D168E14FF0FF3C1CF10103D6
:103E300000F0638161448C463CF80A3B4FF0FF3749
:103E40001BBA07EB13430E2B00F25981DFE813F086
:103E5000F2000F00570157010F0062000F000F0022
:103E60000F00570157010F00EA005701A600002478
:103E7000C0216A464FF02E0E67464FF000094FF002
:103E80000008234617F8016BB9F1000F06F0C005D2
:103E900008BF0133C02D0DD13D78B9F1000F66F395
:103EA0000D2500EB050708BF5C1C17F8016B4FF0F0
:103EB00001092346E6B1F443214409B2002920D484
:103EC0007C1E0132374600BF14F8015F013F02F843
:103ED000015C3D0402F10102F6D1B9F1000F08BF07
:103EE000334402F801EC08F10108671C1C46C9E7DD
:103EF000B8F1000F04BF2E2002F8010B0020107053
:103F000001E04FF0FF33B3F1FF3018BF0CEB0300BB
:103F10008446F4E00024C0216A464FF02E0E674626
:103F20004FF000094FF00008234600BF17F8016B5F
:103F3000B9F1000F06F0C00508BF0133C02D0DD147
:103F40003D78B9F1000F66F30D2500EB050708BFBA
:103F50005C1C17F8016B4FF001092346002E74D04A
:103F6000F443214409B2002900F1C3807C1E0132D0
:103F7000374600BF14F8015F013F02F8015C3D04C1
:103F800002F10102F6D1B9F1000F08BF334402F883
:103F900001EC08F10108671C1C46C7E701F10C0E93
:103FA0000025C02269464FF02E0C74464FF00009E0
:103FB0004FF000082B4600BF14F8017BB9F1000F49
:103FC00007F0C00608BF0133C02E0CD12478B9F128
:103FD000000F67F30D24044408BF5D1C14F8017B37
:103FE0004FF001092B46002F7AD0FD432A4412B22C
:103FF000002A00F18880013C01313D4614F8016F30
:10400000013D01F8016C2E0401F10101F6D1B9F175
:10401000000F08BF3B4401F801CC08F1010801344E
:104020001D46C9E7887A084410F80B1F084400F1C0
:10403000010C64E0887A01F10E0C1070C87A50709F
:10404000087B9070487BD07059E0B8F1000F04BF36
:104050002E2102F8011B00211170591C4DD09C44E7
:104060000025C0216A464FF02E0E64464FF000092D
:104070004FF000082B4600BF14F8017BB9F1000F88
:1040800007F0C00608BF0133C02E0CD12478B9F167
:10409000000F67F30D24044408BF5D1C14F8017B76
:1040A0004FF001092B46B7B3FD43294409B200295B
:1040B0003AD4013C01323D4614F8016F013D02F84B
:1040C000016C2E0402F10102F6D1B9F1000F08BF14
:1040D0003B4402F801EC08F1010801341D46CBE72E
:1040E000B8F1000F04BF2E2001F8010B002008706A
:1040F0000BE04FF0FF33591CB1D14FF0000C60467C
:1041000030B0BDE8F0874FF0FF33B3F1FF3C18BF8C
:104110000EEB030CF3E7B8F1000F04BF2E2002F8FA
:10412000010B0020107001E04FF0FF33581C1ABF44
:104130000CEB030000F1140C4FF0000CDFE7000063
:104140002DE9F043B1B0904640F65812C2F2000299
:104150001388C0000133013013801A0A88F8020066
:10416000002001AC88F80020A8F803000122C8F85C
:104170000600A8F80A00204688F8013088F80520D3
:10418000FCF747F8FCF730F8064620462E21FCF7EE
:1041900021F83146002818BF011B8CB208F10D052B
:1041A00088F80C102CB3B0FA80F04FEA501901AF28
:1041B000284639462246FCF701F85FEAC9702544D3
:1041C00014D1601C0744361A38462E21FCF702F839
:1041D000B0FA80F14FEA51193146002818BFC11BCF
:1041E0008CB2002C05F8011BE2D102E0002005F89A
:1041F000010BA5EB08004FF00121043000B229604B
:1042000031B0BDE8F08300002DE9F04F89B00D46D4
:104210000146002014464FF0000AFCF7E3FF0DF1C1
:104220000D06304603F0EEF906F112080FF25C09B4
:104230004FF0000B03E00BF1010B012010B34046DF
:1042400029462246FCF7E0FF01280DD0C0B2002825
:10425000F3D1BBF1020FEED915A004F0D1F9002083
:104260004FF0FF3AEAE700BF22786378A778E67854
:1042700048462946CDE9007603F08EFC4FF0000A4F
:104280000020DBE7504609B0BDE8F08F3E205472B5
:10429000616E736C6174656420257320746F2025D2
:1042A000642E25642E25642E25640D0A000000006E
:1042B0003E20444E53204661696C65640D00000049
:1042C00010B50446C1B20020FDF7DEFC204610BD4B
:1042D0004FF080707047000040F64811C2F20001B4
:1042E0000A7802704A7842708A788270C978C17000
:1042F0007047000040F64C11C2F200010A780270CB
:104300004A7842708A788270C978C170704700001C
:1043100040F65011C2F200010A7802704A784270E9
:104320008A788270C978C1707047000040F65411D5
:10433000C2F200010A7802704A7842708A7882706C
:10434000C978C170704700002DE9F04F85B042F286
:10435000086101EB4017390A019142F2087101EB43
:10436000401840F2400A4FEA1825C2F2000A4FF006
:10437000000B1CE0DAF8201000208847DAF8201043
:1043800028468847DAF820105FFA88F08847DAF87C
:104390001C0034028047DAF8181006468847DAF81D
:1043A0001000804744EA060BD94500F0AD80DAF8EA
:1043B0000C008047DAF814008047DAF8240078B15E
:1043C000DAF8282062B100208DF808000198032156
:1043D0008DF8090002A88DF80A7090470CE000BF24
:1043E000DAF8201000208847DAF820100198884772
:1043F000DAF82010F8B28847DAF81C008047DAF8BB
:10440000181006468847DAF810008047DAF80C00E2
:104410008047DAF814008047DAF8240070B1DAF83F
:1044200028205AB100208DF80B000DF10B0003215C
:104430008DF80C508DF80D8090470CE0DAF82010C4
:1044400000208847DAF8201028468847DAF820103C
:104450005FFA88F08847DAF81C0034028047DAF8FF
:10446000181006468847DAF81000804754EA060913
:104470009AD0DAF80C008047DAF814008047DAF8AE
:10448000240078B1DAF8282062B100208DF80E00FF
:10449000019803218DF80F000DF10E008DF81070BA
:1044A00090470BE0DAF8201000208847DAF8201057
:1044B00001988847DAF82010F8B28847DAF81C002B
:1044C0008047DAF8181006468847DAF81000804767
:1044D000DAF80C008047DAF814008047DAF8240094
:1044E00000283FF447AFDAF82820002A3FF442AF13
:1044F00000208DF811000DF1110003218DF81250EC
:104500008DF81380904742E71FFA8BF005B0BDE8A5
:10451000F08F00002DE9F04F85B042F2080141EA2A
:104520004017390A019142F2081101EB401840F29C
:10453000400A4FEA1825C2F2000A4FF0000B1CE0B7
:10454000DAF8201000208847DAF82010284688473B
:10455000DAF820105FFA88F08847DAF81C00340295
:104560008047DAF8181006468847DAF810008047C6
:1045700044EA060BD94500F0AD80DAF80C0080471C
:10458000DAF814008047DAF8240078B1DAF8282045
:1045900062B100208DF80800019803218DF8090010
:1045A00002A88DF80A7090470CE000BFDAF82010DE
:1045B00000208847DAF8201001988847DAF82010A0
:1045C000F8B28847DAF81C008047DAF81810064677
:1045D0008847DAF810008047DAF80C008047DAF8EC
:1045E00014008047DAF8240070B1DAF828205AB1B4
:1045F00000208DF80B000DF10B0003218DF80C50FD
:104600008DF80D8090470CE0DAF8201000208847E4
:10461000DAF8201028468847DAF820105FFA88F088
:104620008847DAF81C0034028047DAF8181006468A
:104630008847DAF81000804754EA06099AD0DAF879
:104640000C008047DAF814008047DAF8240078B1CB
:10465000DAF8282062B100208DF80E0001980321BD
:104660008DF80F000DF10E008DF8107090470BE0E3
:10467000DAF8201000208847DAF8201001988847DF
:10468000DAF82010F8B28847DAF81C008047DAF828
:10469000181006468847DAF810008047DAF80C0050
:1046A0008047DAF814008047DAF8240000283FF445
:1046B00047AFDAF82820002A3FF442AF00208DF8F7
:1046C00011000DF1110003218DF812508DF81380A7
:1046D000904742E71FFA8BF005B0BDE8F08F00006D
:1046E0002DE9F0478946014600284FF0000018BF29
:1046F000B9F1000F01D1BDE8F087D1F808A08AB167
:10470000BAF1000F46D0DAF82010002944D048460C
:10471000FBF771FD00283FD0DAF800A0BAF1000FD6
:10472000F1D137E0BAF1000F34D009F1010806E009
:10473000012088B3DAF800A0BAF1000F2AD0DAF825
:104740002040002CF4D0A14520D099F800502846F4
:10475000FBF70AFD217806460846FBF705FD864271
:1047600010D10134474600BF85B117F8015B2846D8
:10477000FBF7FAFC14F8011B06460846FBF7F4FCAD
:104780008642F1D0301A0028D4D105E0002000285C
:10479000D0D101E04FF0000ABAF1000F06D0DAF8EC
:1047A0002000002818BF5046BDE8F0870020BDE873
:1047B000F087000041617047016170472DE9F047C3
:1047C000CF0601F00F0C09D5042A05D1C26B4CF0BD
:1047D000030C1A43C26301E04CEA020C00F1100E14
:1047E00000F1140A00244FF001094FF00F080027D0
:1047F0000EE000BF166008FA04F225EA02020CFA85
:1048000004F52A4302600137082F04F104040CD098
:1048100009FA07F212EA0306F5D00568282952467C
:10482000E8D04829E7D17246E4E7082400254FF094
:1048300001094FF00F080FE0176008FA05F226EAA9
:1048400002020CFA05F6324342600134102C05F1E5
:10485000040508BFBDE8F08709FA04F212EA03076D
:10486000F3D0466828295246E6D04829E5D1724659
:10487000E2E70000B0B540F2040CC4F2010C0CF108
:1048800018031A46B0F1FF3FC4BF0422C4F201026C
:10489000146800F44012B2F5401F1FFA80FE08D1E0
:1048A000DCF8005024F0E06225F0E064CCF8004031
:1048B00011E0C20206D46FF00F0202EA50420EFA73
:1048C00002F204E0C0F30342032505FA02F224EAEF
:1048D000020242F0E0626FF00F0404EA5044002943
:1048E0000EFA04F518BF2A43B0F1FF3FC8BF634674
:1048F0001A60B0BDB0B582B00446806910B304F14F
:104900005400FDF7D5FB08B1207F18B14FF0FF3000
:1049100002B0B0BD6D462846FDF7C6FB28464FF4F1
:104920007A71FDF7B9FBA1682069FDF731F801281C
:10493000ECDB01466A46204601F04EFB0028E5D13B
:1049400001202077002002B0B0BD000001F0C6FFBA
:104950006420FFF71DF8002001F01CF8014616A0A6
:1049600003F01AF9012001F015F8014616A003F032
:1049700013F9022001F00EF8014617A003F00CF91C
:10498000032001F007F8014617A003F005F90A20FB
:1049900003F030FEFFF79CFCFEF776F9FDF724FDEF
:1049A000FEF760F9FFF77AF8FEF758FAFEF7AEF96E
:1049B000FDF730FDFAE700BF0D0A434B5F53595333
:1049C00020697320256400000D0A434B5F41484273
:1049D00020697320256400000D0A434B5F4150425B
:1049E00031206973202564000D0A434B5F4150421A
:1049F000322069732025640080B582B00DF1020178
:104A00004FF410600622FDF741FC42F6A440C2F2CA
:104A10000000026840F20111C0F20601116040F688
:104A20004411C2F2000109680B0E13710B0C537193
:104A30000B0A93718023937240F63013C2F2000385
:104A4000B3F800C093F803E0A2F81CC093F802C0CA
:104A5000D17182F81EC093F804C05B7900211181E6
:104A6000C2F80B10C2F80F10C2F81310C2F81710DA
:104A7000D17682F81FE082F820C082F8213021220E
:104A80000368134401322B2A5970F9D14FF0FF31DA
:104A9000002200BF03680B4401313F2983F82D2019
:104AA000F8D14FF0FF31002203680B4401317F2918
:104AB00083F86D20F8D1006848F26321C6F25331C3
:104AC000C0F8EC1002B080BDF0B5ADF5117D81AC41
:104AD000054620464021FBF766FB01AE30464FF409
:104AE0000071FBF760FB686848F66E07D0E90123A8
:104AF000C0F600072046394603F05EF828683946BC
:104B0000D0E90232304603F057F840F2FC00C2F21E
:104B1000000000F206412046FBF76DFB00281CBF99
:104B20000DF5117DF0BD41F6C044C2F200042046EF
:104B30004FF40071FBF737FB01AD2846FBF754FB40
:104B4000024620462946FBF715FB002021460DF5BD
:104B5000117DBDE8F040FDF7A1BC000070B586B046
:104B6000054608460C4602F05FFEA07D022842D1B1
:104B7000002029460025FCF745F921A003F040FD5F
:104B8000012602E0002630060AD0FCF7A3F900282F
:104B9000F8D00428F7D1002D08BF2E460125F2E7F2
:104BA0001BA01DA1002D08BF01461DA002F0F4FFAF
:104BB000FCF7E4FAD5B10DF10104A01DFFF7A8FB45
:104BC00004F10E00FFF796FB04F10A00FFF7AEFBBD
:104BD00004F11200FFF780FB02208DF817004FF45C
:104BE000106021460622FDF751FB01E00120A0756F
:104BF000204602F019FE00F01FFE06B070BD00BF97
:104C0000444843502072756E6E696E670D00000057
:104C10006661696C000000007375636365737300FF
:104C200044484350202573210D0A00004EF60C5CC9
:104C3000CEF2000CDCF8003003F4E063B3F5E06F73
:104C400001D1042322E0DCF8003003F4E063B3F583
:104C5000C06F01D1032319E0DCF8003003F4E063F6
:104C6000B3F5A06F01D1022310E0DCF8003003F4AB
:104C7000E063B3F5806F01D1012307E0DCF8003079
:104C800003F4E063B3F5407F1AD1002301FA03FC7B
:104C9000C3F104030F21D94011404EF2001241EA42
:104CA0000C01CEF200020901831883F8001300F012
:104CB0001F01012303FA01F1401142F8201070474F
:104CC00040F20053C0F2FA53CCF80030CBE70000BA
:104CD0002DE9F04F85B040F64014C2F20004207870
:104CE000FFF732FB002800F080800246207842F671
:104CF000A444C2F20004216803AF0DF10E03009733
:104D000000F084FFBDF80C1043296ED1276840F6EF
:104D10003011C2F200013A7F0B789A4265D17A7F56
:104D20004B789A4261D1BA7F8B789A425DD1FA7FF3
:104D3000CB789A4259D197F820200B799A4254D1D6
:104D400097F8212049798A424FD140F63C1BC2F2A4
:104D5000000B9BF800309BF801109BF802509BF869
:104D60000320002B08BF00291ED09DF80E609DF87F
:104D70000F409DF810E09DF811C09E4208BF8C4284
:104D800016D040F63811C2F200010A7896424FF070
:104D900000022BD14B789C4228D18B789E4525D19F
:104DA000C9788C4508D021E0002DDED122B1DCE7A6
:104DB000AE45E6D19445E4D107F1F00317FA80F04F
:104DC000834212D29DF80E109DF80FE09DF810A0BE
:104DD0009DF8119040F6381C40F2E8060022C2F21D
:104DE000000CC2F20006029109E0002250B205B0A8
:104DF000BDE8F08F597819448B1C8342F6D219789C
:104E0000362920D8DFE801F01D4D1C331C1C401C46
:104E10001C1C1C1C1C1C1C1C1C1C1C1C1C1C1C1CD2
:104E20001C1C1C1C1C1C1C1C1C1C1C1C1C1C1C1CC2
:104E30001C1C1C1C1C1C1C1C1C1C1C561C64240044
:104E4000D8E70133D9E7FF297FF4D4AF0346D4E78D
:104E5000D3F802100633CBF8001002998CF801E069
:104E60008CF800108CF802A08CF80390C5E733F89A
:104E7000021F40F64C1513F8017C5C88C2F2000555
:104E800029806C803B44B8E733F8021F40F6481590
:104E900013F8014C5F88C2F2000529806F8023441B
:104EA000ABE7D3F8021040F65414C2F200042160BC
:104EB0000633A2E799781C793160DF785D7947EA9B
:104EC0000121090441EA042129440633316094E7B1
:104ED0009A78033391E700002DE9F04FB3B005460F
:104EE00000202882E860A8606860286008888A46F8
:104EF00000BA000C28808F78C878390209B2B1F165
:104F0000FF3F40EA0721DCBF0123AB70C7F3C307B3
:104F10004B05EF7044BF01232B718B0544BF012368
:104F20006B71CB0500F00F0044BF0123AB71019200
:104F3000090644BF0121E9712872BAF804000AF198
:104F40000C0C00BA000C6881BAF8060000BA4FEAEF
:104F50001040A881BAF8080000BA4FEA1040E88172
:104F6000BAF80A0000BA4FEA104028825AD04FF02F
:104F70002E094FF0000B029512E000BF0020002C1C
:104F800008BF02F8019B1070781C49D0029D0CEB01
:104F9000070069890BF1010B8B4500F1040C41D22C
:104FA0004FF00008C02603AA6146002500244746AA
:104FB00011F801EB002D0EF0C00008BF0137C0282A
:104FC0000CD10878002D6EF30D200AEB000108BF0C
:104FD00007F1010811F801EB01254746BEF1000F6A
:104FE000CCD06FEA0E00304406B2002E14D4013942
:104FF0000132704611F8013F013802F8013C030408
:1050000002F10102F6D1002D08BF774402F8019C9D
:1050100001340131B846CBE74FF0FF37781CB5D1EA
:10502000FF2013E0A889019E60B10024504661462C
:105030003246FEF7A3FE0028F2D08446A889013448
:105040008442F3D3287AB0FA80F0400940B233B0FA
:10505000BDE8F08F8446002200200BE06FF02F01A6
:1050600019440844032A02F1010218BF0001042A6E
:1050700008BF70471CF80230A3F130010A29EDD3B4
:10508000A3F14101062903D26FF03601E8E700BF22
:10509000A3F16101052984BF002070476FF056011C
:1050A000DEE70000CB68DA087C2A84BF0020704766
:1050B0002DE9F047D1E901720133BA42CB6080F0AB
:1050C000CC800B689E5C7B2E40F0C7800132BA42D8
:1050D0008A600DD263B100BF9E5C202E04D80132DD
:1050E00097428A60F8D13A46BA4204BF013A8A60D0
:1050F0008A68BA4280F0AF809B5C7D2B11D100257D
:105100000026CA68002DA2F10102CA6018BF6E60B5
:105110008B684022C0E90252581C88600120BDE81B
:10512000F087BA4280F09780013A4FF000080025DE
:1051300000268A600F460969824628208847002891
:105140006ED028210446FBF72EF8A146002D1EBF85
:1051500034606660A946B8683A6839460130B8607C
:1051600072B14B6898420BD2165C202E04D80130E5
:1051700083428860F8D11846984204BF013888609D
:10518000204600F07BF8002850D03B6839467BB1C0
:10519000D1E9012090420BD21E5C202E04D80130B0
:1051A00082428860F8D11046904204BF013888607E
:1051B0002069D1E90126206296425046C4F8108049
:1051C00030D20B689D5D3A2D2CD1701C90428860C6
:1051D0000CD25BB11E5C202E04D801308242886064
:1051E000F8D11046904204BF01388860204600F094
:1051F000CBF958B339463F6850467FB1D1E9013207
:105200009A420BD2BE5C202E04D8013293428A60AF
:10521000F8D11A469A4204BF013A8A60002202E09D
:10522000022206E002224D46264604E002224D46B6
:105230002646394650468AB9D1E901329A420DD202
:105240000F68BF5C2C2F3FF475AF0EE0B0FA80F012
:1052500040094200EBE7501E8860002515B1284642
:10526000FDF74CFF0020BDE8F0879A42F6D20B68AC
:105270009A5C7D2A3FF445AFF0E700002DE9F04F3E
:1052800083B08A460968DAF808204FF000098E18C2
:10529000B04618F8012B222A40F05981DAF8042090
:1052A000A8EB010393424FF0000538BF0125012709
:1052B00093421BD20023C3460DE000BF222C17D01F
:1052C000013706EB070BABEB010595424FF00005EC
:1052D00038BF012524D2F45D5C2CEFD17C1C35193C
:1052E0006D1A95421AD201332746E9E7C34617E003
:1052F000E90713D0F15D222910D19919ABEB010117
:10530000DAF81020013104460846904781464946A4
:105310002046B9F1000F18BF012102E04FF000094B
:105320000021002900F01381022F4D46C0F21C819C
:1053300006EB070C40F2FF3E4D4606E008F101087F
:1053400005F8011BE04580F00F8198F800105C29FA
:10535000F4D1ABEB0803012BC0F2F58098F80120E3
:105360000021A2F12204532C00F23B800826DFE842
:1053700004F02A3838383838383838383838382A45
:10538000383838383838383838383838383838389D
:10539000383838383838383838383838383838388D
:1053A0003838383838383838383838382A3838388B
:1053B00038383338383832383838383838382C3884
:1053C00038382E38303C164606E00A2604E00D2612
:1053D00002E0092600E00C2605F8016B0221884452
:1053E000012100297FF4AEAFB1E0062BC0F2A88006
:1053F000CDF808A008F1020100224FF0000A0BE0EE
:105400006FF02F0633449A44032A02F1010218BFB9
:105410004FEA0A1A042A14D08B5CA3F130070A2F32
:10542000EED3A3F14107062F02D26FF03606E9E76B
:10543000A3F16107052F02D86FF05606E2E74FF09F
:10544000000A2AEA0E01B1F55C4F76D0B1F5584F4B
:105450001BD108F10601ABEB0102062A17DB097824
:105460005C2914D198F80710752910D1064608F167
:1054700008006446FFF7EEFDA0F5604111F5806F6E
:105480004ED24FF0000A002151E0062105E04FF016
:10549000000A0021002950D00C21BAF1800FCDF86C
:1054A00004C007D3BAF5006F29D24FF0C00C4FF0FB
:1054B000020E03E04FF0000C4FF0010EBEF10102AE
:1054C00053464FF002070CD055FA82F6544600BFFF
:1054D000A30967F39F14013A06F8014914061C4614
:1054E000F6D103F07F02BAF17F0F88BF43EA0C02C6
:1054F000DDE901CA2A70754440F2FF3E20E0BAF5AA
:10550000803F04D24FF0E00C4FF0030ED6E74FEA95
:105510001A42102A11D84FF0F00C4FF0040ECDE7CC
:105520006FF39F206AF3932000F5803A0121304603
:10553000A44640F2FF3E0029AED1DDF808A00021CC
:1055400000297FF44CAF002100297FF4FBAEB9F1B4
:10555000000F03D0DAF8141048468847DAF8000044
:10556000A8EB000100200AE000212970DAF80020F1
:105570001021C0E90319ABEB0200411C0120CAF85D
:10558000081003B0BDE8F08F2DE9F04792B0002974
:1055900000F046810F688A46002F00F04181DAE969
:1055A0000156814606F10408A84509D848F6962117
:1055B000B819C0F6000104220424FAF733FE20B320
:1055C000741DAC4208D848F68B21B819C0F600010A
:1055D0000522FAF727FE00B3A84509D848F691211D
:1055E000B819C0F600010422FAF71CFE00285ED0AC
:1055F000AE4280F01581B85D222816D1484651464A
:1056000012B0BDE8F047FFF739BEC9F80C40CAF840
:105610000880012012B0BDE8F0870120C9F80C0015
:10562000CAF8084012B0BDE8F087AE4280F0F880BA
:10563000B85D2D2846D03038092843D9AE4280F0D5
:10564000EF80B85D5B2840F08980DAF80C00C10873
:105650007C2900F2E5800130CAF80C00B85D5B28B7
:1056600040F0D980701CCAF808005046FDF72CFDA8
:10567000DAE90110884280F0CB80DAF80020125C71
:105680005D2A40F0858000260025DAF80C00002E07
:10569000A0F10100CAF80C0018BF7560DAF8081014
:1056A0002020C9E90260481CCAF80800B1E70220BE
:1056B000C9F80C000120C9F81400CAF8088012B01B
:1056C000BDE8F087B9190D270020AA1B01AE4FF0E5
:1056D0000103C0F20047119038BF024607E003FA09
:1056E00004F43C420ED0355401303F280DD08242A4
:1056F0000CD00D5CA5F130040A2CF4D3A5F12B04D9
:105700001A2CECD9652DEED000E03F200021315459
:1057100011A9304602F094FA119CA64200F0808054
:105720009FED411B58EC107B53EC112B3846414642
:1057300089ED060BFBF76AF868B99FED3D0B38461B
:1057400053EC102B4146FBF746F898B938464146D2
:10575000FBF777F810E06FF000400DE0AE425FD24B
:10576000B85D7B285CD14846514612B0BDE8F04791
:10577000FFF798BC4FF00040C9F814000820C9F8A2
:105780000C00DAF80800A11B0844CAF8080040E73A
:1057900088423DD2013800260025CAF80800DAF810
:1057A000101028208847D8B128210746FAF7FBFCBB
:1057B0003C46002E1EBF2F607D603446DAF808009C
:1057C0000130CAF808005046FDF77EFC38465146C5
:1057D000FFF7DAFE30B15046FDF776FC012002E01B
:1057E000002002E0002026463D46A8B1DAE901107B
:1057F000884211D2DAF80020125C2C2ACFD08842DD
:105800000AD2DAF80010085C5D283FF43EAF03E0EE
:105810000138CAF80800002616B13046FDF76EFCC4
:10582000002012B0BDE8F0870000C0FFFFFFDF419D
:10583000000000000000E0C110B58AB00DF11100B9
:1058400001F0E0FE9DF8271048F60A2048F6C8044B
:10585000C0F6000048F6A302C0F60004C0F600023D
:10586000022908BF144602F0CBFE48F2D061C0F610
:105870000001204602F090F99DF814009DF81540B3
:105880009DF811109DF812209DF813309DF816C058
:10589000CDE9000448F6EF00C0F60000CDF808C0DE
:1058A00002F07AF99DF817109DF818209DF819302C
:1058B0009DF81A4017A0009402F06EF99DF81B1095
:1058C0009DF81C209DF81D309DF81E4019A00094E5
:1058D00002F062F99DF81F109DF820209DF82130FC
:1058E0009DF822401BA0009402F056F99DF8231069
:1058F0009DF824209DF825309DF826401DA0009499
:1059000002F04AF948F6A210C0F6000002F078FE54
:105910000AB010BD20495020202020202020202027
:10592000203A2025642E25642E25642E25640D0A38
:1059300000000000205375626E6574204D61736B2A
:10594000203A2025642E25642E25642E25640D0A18
:1059500000000000204761746577617920202020D5
:10596000203A2025642E25642E25642E25640D0AF8
:105970000000000020444E53202020202020202022
:10598000203A2025642E25642E25642E25640D0AD8
:105990000000000010B541F20404C4F202042168C2
:1059A00001F00C01082941F20021C0F27A012BD14B
:1059B0002368DB0304D440F6001CC0F23D0C0DE06C
:1059C000A36AD4F800C05B0046F60043C0F2DC23B3
:1059D00058BF0B46CCF3404123FA01FC23682168F1
:1059E000C3F3834E102303EAD15123688E44202150
:1059F00001EA536171440B463F2918BF01330F2957
:105A000038BF8B1C03FB0CF1236812A2C3F30313F2
:105A1000D35C226848F2417CC2F30222C0F6000C3B
:105A20001CF802E02268032812D821FA03F3DFE809
:105A300000F00D020407184610BD23FA0EF010BD49
:105A4000C2F3C2201CF8000023FA00F1084610BD82
:105A5000002010BD0000000000000000010203044F
:105A60000607080941F2000300F01F018009C4F293
:105A700002034FF0010CC2580CFA01F11143C1505E
:105A80007047000041F2000300F01F018009C4F2DA
:105A900002034FF0010CC2580CFA01F122EA010195
:105AA000C150704741F2000300F01F018009C4F2A9
:105AB00002034FF0010CC2580CFA01F11143C1501E
:105AC000704700000268014612F8010B0A60704737
:105AD0000268014632F8020B40BA0A6070470000C3
